:020000040800F2
:10000000D02F0020A98000086D7E0008D180000854
:10001000D5800008D9800008DD80000800000000BD
:10002000000000000000000000000000E180000867
:10003000E580000800000000E9800008757E0008E7
:10004000ED800008F1800008F5800008F9800008C4
:10005000FD80000801810008058100080981000871
:100060000D81000811810008158100081981000820
:100070001D810008218100082581000829810008D0
:100080002D81000831810008817E000800000000F9
:1000900000000000000000000000000035810008A2
:1000A0000000000000000000000000000000000050
:1000B000398100083D810008418100088B7E0008DD
:1000C000957E000845810008498100084D8100089F
:1000D000518100089F7E0008558100085981000861
:1000E0005D81000861810008000000000000000040
:1000F0000000000000000000000000000000000000
:100100006581000800000000698100086D81000819
:100110007181000875810008798100087D810008DF
:100120008181000885810008898100088D8100088F
:1001300038B5040000252078C00740F11781DFF8AA
:10014000280C006810F00C0004280BD0DFF8180C05
:10015000006810F00C0008282BD1DFF80C0C0068A8
:10016000C00326D54FF48040B0FA80F050F0200054
:10017000C0B24009C0B2012803D1DFF8180C0068F2
:1001800006E04FF48040B0FA80F0DFF8340C0068ED
:100190004FF48041B1FA81F111F01F010200CA4011
:1001A000D00740F1E3806068002840F0DF80012044
:1001B000BBE3DFF8E00B006830F48030DFF8D41BDD
:1001C0000860DFF8D00B006830F48020DFF8C41B33
:1001D000086000F04CFE05004FF48040B0FA80F05B
:1001E00050F02000C0B24009C0B2012803D1DFF8AE
:1001F000A40B006806E04FF48040B0FA80F0DFF80E
:10020000C00B00684FF48041B1FA81F111F01F0179
:100210000200CA40D00708D500F029FE401B41F279
:1002200089318842D8D303207FE36068B0F5803FEE
:1002300008D1DFF8600B006850F48030DFF8541B01
:10024000086038E06068002810D1DFF8480B0068CB
:1002500030F48030DFF83C1B0860DFF8380B0068B2
:1002600030F48020DFF82C1B086024E06068B0F5D3
:10027000A02F10D1DFF81C0B006850F48020DFF8AD
:10028000141B0860DFF80C0B006850F48030DFF8B6
:10029000041B08600FE0DFF8FC0A006830F48030CF
:1002A000DFF8F01A0860DFF8EC0A006830F480200C
:1002B000DFF8E01A0860606800282BD000F0D7FD56
:1002C00005004FF48040B0FA80F050F02000C0B23A
:1002D0004009C0B2012803D1DFF8B80A006806E07F
:1002E0004FF48040B0FA80F0DFF8D40A00684FF491
:1002F0008041B1FA81F111F01F010200CA40D0071C
:1003000034D400F0B4FD401B41F289318842D8D387
:1003100003200AE300F0ABFD05004FF48040B0FA83
:1003200080F050F02000C0B24009C0B2012803D1D3
:10033000DFF8600A006806E04FF48040B0FA80F011
:10034000DFF87C0A00684FF48041B1FA81F111F0C6
:100350001F010200CA40D00708D500F088FD401BED
:1003600041F289318842D8D30320DEE22078800729
:1003700046D5DFF8F409006810F00C0F0BD0DFF859
:10038000E809006810F00C0008286AD1DFF8D809E5
:100390000068C00365D45FF08040B0FA80F050F090
:1003A0002000C0B24009C0B2012803D1DFF8E4093F
:1003B000006806E05FF08040B0FA80F0DFF8000AE5
:1003C00000685FF08041B1FA81F111F01F01020075
:1003D000CA40D00704D52069012801D00120A4E239
:1003E000DFF8B00900685FF0F851B1FA81F130F040
:1003F000F800626912FA01F10843DFF89819086001
:100400002078000740F1AB80A069002800F0D1807F
:1004100001205FF00041B1FA81F1DFF8C02942F814
:10042000210000F024FD05005FF08040B0FA80F06C
:100430005FF08040B0FA80F0DFF8840900685FF078
:100440008041B1FA81F111F01F010200CA40D007CA
:1004500000F1828000F00BFD401B6528E4D30320EF
:1004600063E22069002843D001205FF00041B1FA27
:1004700081F1DFF86C2942F8210000F0F8FC05005A
:100480005FF08040B0FA80F050F02000C0B2400928
:10049000C0B2012803D1DFF8FC08006806E05FF075
:1004A0008040B0FA80F0DFF8180900685FF0804102
:1004B000B1FA81F111F01F010200CA40D00706D441
:1004C00000F0D5FC401B6528DAD303202DE2DFF8CD
:1004D000C40800685FF0F851B1FA81F130F0F8001B
:1004E000626912FA01F10843DFF8A818086087E78B
:1004F00000205FF00041B1FA81F1DFF8E42842F812
:10050000210000F0B4FC05005FF08040B0FA80F0FC
:1005100050F02000C0B24009C0B2012803D1DFF87A
:100520007408006806E05FF08040B0FA80F0DFF801
:10053000900800685FF08041B1FA81F111F01F016D
:100540000200CA40D0077FF55BAF00F090FC401B73
:100550006528D9D30320E8E1012000F08BFC207846
:10056000400740F12981DFF87C08006850F0805096
:10057000DFF870180860DFF86C08006810F0805031
:1005800000900098DFF86008006850F48070DFF891
:100590005818086000F06BFC0500DFF84C08006894
:1005A000C0052ED400F063FC401B6528F5D3032062
:1005B000BBE100205FF00041B1FA81F1DFF81C28B7
:1005C00042F8210000F053FC05005FF08040B0FAD3
:1005D00080F05FF08040B0FA80F0DFF8E407006858
:1005E0005FF08041B1FA81F111F01F010200CA40B1
:1005F000D007B4D500F03BFC401B6528E5D30320B1
:1006000093E1DFF8E807006840084000DFF8DC17F6
:100610000860DFF8D807006830F00400DFF8CC1776
:10062000086000F024FC05005FF08040B0FA80F024
:100630005FF08040B0FA80F050F04000C0B2400956
:10064000C0B2022803D1DFF8A407006802E0DFF897
:10065000700700685FF08041B1FA81F111F01F016D
:100660000200CA40D00708D500F001FC401B41F24F
:1006700089318842D8D3032057E1E068012808D1A6
:10068000DFF86807006850F00100DFF860170860C5
:1006900037E0E068002810D1DFF850070068400814
:1006A0004000DFF848170860DFF84007006830F0C6
:1006B0000400DFF83817086023E0E068052810D14F
:1006C000DFF82807006850F00400DFF82017086002
:1006D000DFF81807006850F00100DFF81017086015
:1006E0000FE0DFF80807006840084000DFF8FC165C
:1006F0000860DFF8F806006830F00400DFF8EC1658
:100700000860E06800282BD000F0B1FB05005FF026
:100710008040B0FA80F05FF08040B0FA80F050F096
:100720004000C0B24009C0B2022803D1DFF8BC06C5
:10073000006802E0DFF8880600685FF08041B1FAE7
:1007400081F111F01F010200CA40D00734D400F03B
:100750008EFB401B41F289318842D8D30320E4E06C
:1007600000F085FB05005FF08040B0FA80F05FF09C
:100770008040B0FA80F050F04000C0B24009C0B2F2
:10078000022803D1DFF86406006802E0DFF83006D3
:1007900000685FF08041B1FA81F111F01F010200A1
:1007A000CA40D00708D500F062FB401B41F28931F6
:1007B0008842D8D30320B8E0E069002800F0B48074
:1007C000DFF8A405006810F00C00082800F0AA80EB
:1007D000E069022877D100208021B1FA81F1DFF8A9
:1007E000002642F8210000F042FB05004020B0FA4C
:1007F00080F050F02000C0B24009C0B2012803D1FF
:10080000DFF89005006805E04020B0FA80F0DFF8DE
:10081000B00500684021B1FA81F111F01F0102001A
:10082000CA40D00706D500F022FB401B6528DDD367
:1008300003207AE0206AB0F5803F09D1DFF828056F
:10084000006830F40030A1680843DFF81C15086028
:10085000DFF81405006830F47410216A0843616AF7
:100860000843DFF80415086001208021B1FA81F106
:10087000DFF86C2542F8210000F0F9FA050040206D
:10088000B0FA80F050F02000C0B24009C0B2012898
:1008900003D1DFF80005006805E04020B0FA80F0E1
:1008A000DFF81C0500684021B1FA81F111F01F0149
:1008B0000200CA40D00737D400F0D9FA401B65289F
:1008C000DDD3032031E000208021B1FA81F1DFF88F
:1008D000102542F8210000F0CAFA05004020B0FAC5
:1008E00080F050F02000C0B24009C0B2012803D10E
:1008F000DFF8A004006805E04020B0FA80F0DFF8DF
:10090000C00400684021B1FA81F111F01F0102001A
:10091000CA40D00708D500F0AAFA401B6528DDD3ED
:10092000032002E0012000E0002032BD70B5040089
:100930000D000026DFF8B804006810F00700A84298
:1009400080F0D180DFF8A8040068C008C000284308
:10095000DFF89C140860DFF89804006810F00700C6
:10096000A84201D001209EE12078800709D5DFF858
:100970008404006830F0F000A1680843DFF87414C4
:1009800008602078C00740F173816068012821D198
:100990004FF48040B0FA80F050F02000C0B240091F
:1009A000C0B2012803D1DFF8EC03006806E04FF481
:1009B0008040B0FA80F0DFF8080400684FF480410E
:1009C000B1FA81F111F01F010200CA40D00745D4ED
:1009D000012068E1606802281ED14020B0FA80F052
:1009E00050F02000C0B24009C0B2012803D1DFF8A6
:1009F000A403006805E04020B0FA80F0DFF8C003EF
:100A000000684021B1FA81F111F01F010200CA40D3
:100A1000D00723D4012046E15FF08040B0FA80F097
:100A200050F02000C0B24009C0B2012803D1DFF865
:100A30006403006806E05FF08040B0FA80F0DFF801
:100A4000800300685FF08041B1FA81F111F01F016D
:100A50000200CA40D00701D4012024E1DFF894034A
:100A600000688008800061680843DFF88813086028
:100A700000F0FDF906006068012810D1DFF874036A
:100A8000006810F00C00042800F0F28000F0EFF98C
:100A9000801B41F289318842F0D3032003E1606872
:100AA000022810D1DFF84C03006810F00C00082871
:100AB00000F0DE8000F0DBF9801B41F289318842D2
:100AC000F0D30320EFE0DFF82C03006810F00C0FE8
:100AD00000F0CE8000F0CBF9801B41F289318842D2
:100AE000F1D30320DFE02078800709D5DFF8040385
:100AF000006830F0F000A1680843DFF8F8120860E1
:100B00002078C00740F1A5806068012820D14FF40B
:100B10008040B0FA80F050F02000C0B24009C0B26E
:100B2000012802D19B48006806E04FF48040B0FAEB
:100B300080F0DFF88C0200684FF48041B1FA81F157
:100B400011F01F010200CA40D00742D40120AAE0E0
:100B5000606802281DD14020B0FA80F050F02000DB
:100B6000C0B24009C0B2012802D18A48006805E03D
:100B70004020B0FA80F0DFF8480200684021B1FA66
:100B800081F111F01F010200CA40D00721D40120D9
:100B900089E05FF08040B0FA80F050F02000C0B2F1
:100BA0004009C0B2012802D17A48006805E05FF030
:100BB0008040B0FA80F0824800685FF08041B1FA6E
:100BC00081F111F01F010200CA40D00701D40120B9
:100BD00069E0DFF82002006880088000616808434F
:100BE000DFF81012086000F042F906006068012882
:100BF0000FD1DFF80002006810F00C00042828D0A4
:100C000000F035F9801B41F289318842F1D303208D
:100C100049E0606802280ED17648006810F00C00A8
:100C2000082816D000F023F9801B41F28931884250
:100C3000F2D3032037E06F48006810F00C0F08D0A3
:100C400000F015F9801B41F289318842F3D303206B
:100C500029E067480068C008C0002843644908606C
:100C60006348006810F00700A84201D001201AE094
:100C70002078400707D55F48006830F4E060E168FD
:100C800008435C4908602078000708D55948006887
:100C900030F46050216950EAC100564908600020D4
:100CA00000F0CDF8002070BD01204FF48051B1FA62
:100CB00081F14B4A42F82100704710B586B001A877
:100CC0004D49102200F0F8F84C480088ADF80000BB
:100CD000002000200020002100202348006810F0A0
:100CE0000C01042902D0082902D022E0444821E066
:100CF00001A910F470124FF47053B3FA83F3140087
:100D0000DC40615CC00310D51748006800AA10F4ED
:100D100000304FF48043B3FA83F30400DC40A05C5E
:100D2000374AB2FBF0F0484302E0364800FB01F0DE
:100D300000E0334806B010BD10B5FFF7BEFF0A490A
:100D400009685FF07062B2FA82F22F4B11F0F00185
:100D50000C00D440E15C0200CA402C4802602B48E1
:100D6000006810BD000000000410024010B5FFF73D
:100D7000E3FF01001F4800685FF46002B2FA82F2EC
:100D8000214B10F4E0600400D440E25C0800D04045
:100D900010BD00000010024010B5FFF7CDFF0100AC
:100DA000144800685FF4E012B2FA82F2164B10F4B5
:100DB00060500400D440E25C0800D04010BD000048
:100DC0002410024080B512480068000604D500F0E7
:100DD00023F880200F49087001BD000080044242C2
:100DE000000042421C1002400070004020100240EF
:100DF0000020024004100240888000081A0E0008FB
:100E000000127A0000093D0098800008BC00002014
:100E1000081002400A1002407047010280B51C48C9
:100E2000006850F010001A490860032000F0D4F860
:100E3000002000F004F800F013F9002002BD10B506
:100E40000400FFF779FF4FF47A71B0FBF1F000F086
:100E5000DDF8002221005FF0FF3000F0C1F8002033
:100E600010BD0C480068401C0A49086070470948DA
:100E70000068704711B581B00024FFF7F8FF040047
:100E8000FFF7F5FF001B01998842F9D313BD00005D
:100E900000200240AC2B002062B38B0708D0521E0A
:100EA00011F8013B00F8013B00F024808B07F6D1DC
:100EB000830740F0208000BF103A07D330B4B1E878
:100EC0003810103AA0E83810F9D230BC530724BFCC
:100ED000B1E80810A0E8081044BF51F8043B40F8FE
:100EE000043BD20724BF31F8022B20F8022B44BF69
:100EF0000B7803707047083A07D3B1E80810083A36
:100F000040F8043B40F804CBF7D25307E4E7000075
:100F100010F00701474800684FF6FF021040464AAC
:100F200052EA01210843434908607047414800687C
:100F3000C0F302207047012110F01F0291403F4A88
:100F400040B2400942F82010704740B2002808D54E
:100F500009013B4A40B210F00F00801800F8041C51
:100F600003E00901374A40B28154704710B410F0D1
:100F70000700D0F10703052B01D3042301E0D0F1D2
:100F80000703041D072C01D2002000E0C01E01242D
:100F900014FA03F35B1E19408140012313FA00F099
:100FA000401E1040084310BC704780B5411EB1F18F
:100FB000807F01D301200EE0401E234908600F21ED
:100FC0005FF0FF30FFF7C1FF0020204908600720D5
:100FD0001F490860002002BD80B5FFF799FF01BDE1
:100FE00070B504000D0016000020FFF79FFF3200CF
:100FF0002900FFF7BBFF0100200040B2FFF7A5FF6B
:1010000070BD80B540B2FFF796FF01BD80B5FFF718
:10101000CCFF02BD042806D10D48006850F0040042
:101020000B49086005E00A48006830F004000849F0
:10103000086070470CED00E00000FA0500E100E0F8
:1010400018ED00E000E400E014E000E018E000E04B
:1010500010E000E080B500F001F801BD704700002D
:1010600080B56848006850F001006649086065482E
:10107000006810F00100009000980320FFF7ACFF1B
:10108000002200215FF0FF30FFF7AAFF5E480068F2
:1010900030F0E06050F080605B49086001BD00B551
:1010A00085B000685949884223D15648006850F4F9
:1010B0000070544908605348006810F400700090B4
:1010C0000098302001900320029001A9504800F0C0
:1010D000B1F8032001900320029001A94D4800F0CF
:1010E000A9F8002200211220FFF77AFF1220FFF753
:1010F00088FF05B000BD81B00068474988420BD128
:101100004648006850F04000444908604348006881
:1011100010F040000090009801B0704700B585B015
:1011200000683F49884225D1C020019012200290DA
:101130000320049001A9374800F07CF83948006882
:1011400050F40010374908603648006810F4001069
:1011500000900098002200211F20FFF741FF1F2070
:10116000FFF74FFF002200212020FFF739FF20204A
:10117000FFF747FF05B000BD704700B585B00068B8
:101180002949884229D11F48006850F480401D49F0
:1011900008601C48006810F48040009000984FF4EC
:1011A00000700190022002900320049001A91F48C2
:1011B00000F040F84FF48060019000200290002081
:1011C000039001A9194800F035F8002200212520DC
:1011D000FFF706FF2520FFF714FF05B000BD81B023
:1011E0000068134988420BD10E48006850F4006033
:1011F0000C4908600B48006810F4006000900098EB
:1012000001B0704718100240040001400024014062
:1012100000100140000C0140003002401410024058
:10122000005400401C1002400038014000080140FA
:10123000002C0040F8B400250024002500220026E0
:10124000002308E0DFF8C4512D6835EA0404DFF814
:10125000BC512C605B1C102B80F0D080012414FA50
:1012600003F50C682C40AC42F4D14E68002E27D018
:10127000012E1AD0022E1DD0032E2FD0112E16D0E3
:10128000122E1AD0624FBE421AD0624FBE4217D001
:10129000614FBE4214D0614FBE4211D0604FBE427A
:1012A0000ED0604FBE420BD01AE0CA6818E0CA6880
:1012B000121D15E0CA68083212E0CA680C320FE04D
:1012C0008A68002A01D1042207E08A68012A02D133
:1012D0000822056101E00822456101E00022FFE7E4
:1012E000FF2C01D8050000E0051DFF2C01D89E0051
:1012F00002E0B3F10806B6002F685FF00F0C1CFA8D
:1013000006FC37EA0C0712FA06F63E432E604D68DB
:10131000ED009FD5444D2D6855F00105424E3560D6
:10132000414D2D6815F001050095009D3F4D9E082B
:1013300055F826500F2613F00307FFB2BF00BE403A
:10134000B5433B4EB04201D1002619E0394EB042C0
:1013500001D1012614E0384EB04201D102260FE03F
:10136000364EB04201D103260AE0354EB04201D1DB
:10137000042605E0334EB04201D1052600E00626E2
:1013800013F00307FFB2BF00BE403543274E9F084E
:1013900046F827504D68ED0305D52B4D2D682543A4
:1013A000294E356004E0284D2D68A543264E356052
:1013B0004D68AD0305D5254D2D682543234E356079
:1013C00004E0224D2D68A543204E35604D68ED02A6
:1013D00005D51F4D2D6825431D4E356004E01C4D7D
:1013E0002D68A5431A4E35604D68AD027FF52AAFD2
:1013F000064D2D682C43054D2C602BE7F1BC704742
:10140000C26889B25140C160704700000C040140BD
:101410000000111000001210000021100000221026
:101420000000311000003210181002400800014086
:1014300000080140000C0140001001400014014070
:1014400000180140001C0140000401400404014058
:1014500008040140DFF86429136A0021984201D191
:1014600008467047526A01219042F9D04FF0FF3090
:1014700070473EB50446DFF848090568696C19B93C
:10148000204600F071FD37BD00F0A5FCDFF82C0907
:10149000C06D00B9A86C01F04CF8009001A900F0F3
:1014A000DBF800F02DFB214601A801F085F801A82A
:1014B00000F05AFD37BDFEB506460C46154601F054
:1014C00030F80090876AB80735D5204600F05DF9FE
:1014D00000281EBF40F60100384001282BD000F044
:1014E0001DFA00900246214600F0ADF901A800F077
:1014F0004CF9F0B10098806A44F22001084207D00C
:10150000009800F1080101AA083001F075F810E018
:101510000098083001A900F05FFC00980099806AEB
:1015200028438862DFF89408818B491C818301F08D
:101530008FF800F0E5FAF7BD2022BCE738B5044685
:101540000D4602E0054600F0DBFA00F082F800F0FC
:10155000DCF803D400F0D4FA002032BD0099204614
:1015600001F02AF8009880690028EBD100F0C8FA51
:101570002846FFF76FFFC043C00F32BDDFF84008B9
:1015800010B50068DFF83448483084B0017B21B1E1
:1015900004F10800FFF76DFF1FBD006800F0C9FFF0
:1015A000009001A8009900F017FC00F0A9FAE16D85
:1015B00011B101A8FFF7C2FF01A8FFF75AFF1FBD35
:1015C00070B50D0084B0044642D000F0B2FF019027
:1015D0000020019908620198856100F03AF80290B4
:1015E000019890F8280000F008050298C6691EB915
:1015F00000F0ECFB02A829E000F090F9009065B93A
:1016000090F82800000708D501980662029800F0BB
:10161000DDFB00F048FB00A818E000F044FB00F000
:101620006FFA00F00BF900900098066A0EB9046298
:101630000BE000F003F9002DF5D190F82810090710
:10164000F1D5009804620198066201A800F07CFFC1
:101650007FBD284600F06DBF0B46B0F90220B0F9FF
:101660000010184600F0FCBF10B5040082B021D075
:1016700000F05FFF00F049F81AD50098406A002892
:101680001EBFDFF8B0170968A14204D001F008F8C6
:10169000009900204862204601F024F8044605E045
:1016A0002046FFF7E1FF00F05FFA046A002CF7D153
:1016B00000F026FA13BD70B5040084B00D4616463E
:1016C00022D000F036FF00F020F804D5009A294619
:1016D00000F0B9F810B900F013FA7FBD00F010FA6D
:1016E000324601A92046FFF7E6FE204600F0FAFF49
:1016F000044607E0324601A92046FFF7DCFF00F070
:1017000033FA046A002CF5D17FBD009090F82800D0
:10171000800770472DE9F0410F0084B0064614465B
:1017200098462ED0384600F004FF0090856AA8073E
:1017300025D5009A314600F086F800B340F6010046
:101740002840012807D10098026A8169434601A810
:10175000FFF7E0FF04E0424601A93846FFF7ABFE81
:101760000098C66907E0424601A93046FFF7A3FF8B
:1017700000F064F8066A002E18BFA642F3D100F00C
:10178000BFF9BDE8FF812023C4E7B0F90410B0F928
:1017900000209142A2BFB0F90610B0F902008142C8
:1017A00001DA002070470120704770B584B006460A
:1017B0000C4615460BE001AA21463046FFF7F5FF1F
:1017C00000F03CF8066A002EF5D100F097F9002EE3
:1017D00033D000F0A3F80090866AB007F5D515B1B4
:1017E00000F02FF801E000F0F5FA00F065F80028AD
:1017F000EBD0F0071ED40098B0F90200002D04D001
:10180000B5F902108142A8BF0846B4F9021081421E
:1018100009DABDF90600B4F90620411E9142D4DA76
:10182000401EE080D1E7BDF90A00B4F906108842F5
:10183000CBDAF6E70098C669C5E77FBD304600F011
:1018400070BE00992A4601A800F053BFFEB50746B6
:101850000C461546002610E001AA21463846FFF73F
:10186000F5FF00B10126384600F05BFE076A002F45
:10187000F2D10098076A00F043F9DFB1384600F072
:1018800058FE0090876AB807F3D515B1FFF7D9FF66
:1018900001E000F09FFA00F00FF80028E9D0F80707
:1018A00005D4BDF80800401C20800126E1E700981F
:1018B000C769DCE73046FEBD01A9204600F04ABFFB
:1018C00070B584B006460C4615460BE001AA2146C9
:1018D0003046FFF7F5FFFFF7B1FF066A002EF5D19E
:1018E00000F00CF9CEB100F019F80090866AB0074C
:1018F000F6D515B1FFF7A5FF01E000F06BFAFFF791
:10190000DBFF0028ECD0F00704D4BDF80400401E33
:10191000A080E5E70098C669E0E77FBD304600F0AB
:1019200008BE00B585B00091019000A900F02EFF1F
:1019300005B000BD00224A800A8003888288D21A3E
:101940008A80C2884088101AC880704770B5040029
:1019500086B00D4630D000F0ECFD0090866AB007EE
:1019600028D500F037FAF00344BF2046FFF77CFE8D
:101970005DB103A8294600F02FFA009803A9FFF7EC
:101980006BFE03A901A800F017FE214601A8FFF78E
:10199000D5FD78B140F601003040012806D100980D
:1019A000026A816901A8FFF7EEFE03E001A9204663
:1019B000FFF7C2FD00F0A4F806B070BD0021C5E736
:1019C0002DE9F04F83B0DFF88045074688460D9833
:1019D000E16C0C9E91469A4641EA000546B9608B3F
:1019E00050B3DFF8DC030068407C04EB8000066A3B
:1019F00016F1010F08BF00261ED0EEB1FFF78EFFD3
:101A000001900199B0F90000B1F90210C719B9F1BC
:101A1000000F884405D1019AB2F90420101A00F190
:101A20000109BAF1000F05D10198B0F90600401A7A
:101A300000F1010A00F0CBF90F982C3000F0C6FE3F
:101A40005FEA000B57D0608B401C6083584600F063
:101A500070FD009007800098A0F8028009EB070055
:101A60000099401E88800AEB08000099401EC8803B
:101A700000990E980861DFF8D4140098806A294014
:101A800008430099886200F03BF8E06B50B100F029
:101A900048FD0746584600F044FD79694161C7F8A2
:101AA00014B001E0C4F83CB031465846FFF788FD59
:101AB000A80644BF584600F03CF8E80702D5A06DE0
:101AC000401CA065680644BF584600F091FEA80778
:101AD0000DD5584600F02DFD00900099806A40F029
:101AE0000200886200F00CF85846FFF767FF0121FA
:101AF0005846FFF716FF5846BDE8FE8F0098066A65
:101B000000A800F021BD10B5044600F00AFD806970
:101B10000028F9D12046BDE81040FFF79BBC80B5F6
:101B2000FFF7F1FF00285CBFBDE8024000F0A2BE55
:101B300001BD70B5DFF8885204002868866C04BFC8
:101B4000DFF80414CC6B84642046FFF7E8FF01F053
:101B5000F5F800F009F82968B0F90020CA64B0F976
:101B600002000865304670BD204600F0DABC70B552
:101B7000DFF8D44384B0D4E90201CDE90001206943
:101B800020B92088ADF80000608811E0A089401CD1
:101B9000ADF800006089BDF90010ADF80200B4F99D
:101BA0000400884206DA2088ADF80000E089401C75
:101BB000ADF80200B4F90600BDF90210884264DBFA
:101BC000DFF88C5300F0FEF80290B4F90010BDF974
:101BD0000000884217D1E088ADF80600A088ADF873
:101BE00004002868806C08E000F09BFC0646002298
:101BF000306A00A9FFF7D9FDB0690028F4D100F0E0
:101C00004DF8FFF7D2FDBDF80000ADF804002868DC
:101C1000806C0AE000F085FC06460022306A00A9CC
:101C2000FFF714FE0028EED1B0690028F2D100F0D1
:101C300035F8FFF70BFE0028E5D1BDF90010B4F927
:101C40000400ADF80400884206DADDE90001C4E9C9
:101C5000020100F028F8A6E72868806C08E000F090
:101C600060FC05460022286A00A9FFF729FEA86942
:101C70000028F4D100F012F8FFF722FE00F013F86C
:101C8000206944F62161884201DB002004E0DDE99F
:101C90000001C4E90201012004B070BD0298C069CE
:101CA000002200A9704702A800F04EBC444800681A
:101CB00090F8540000B9704710B5DFF88C426069A5
:101CC000022805DA2069401C2061FFF750FF20B987
:101CD0006069401E6061002010BDFFF74FFC0120CD
:101CE00010BD70B5364C06462068483086B0017B82
:101CF00011B9FFF743FC06E0DFF84C526969491C53
:101D00000229696101DB012055E0006800F011FC47
:101D100000904FF0FF302861287E20B3009902A880
:101D2000083100F059F81EB1314602A800F044FC19
:101D30002068416C29B300980190082204A8FFF79D
:101D4000ABF8E86D28B100F042F8E86D00F0F1FB67
:101D5000019004A90198FFF77FFC04A902A800F0F4
:101D60002BFC01A80EE0009890F82800800702D50F
:101D7000009902A8D5E76869401E6861FFF7C0FEB8
:101D800011E000A800F0E0FBE96D19B102A8FFF72F
:101D9000D5FB28B12068816C02A8FFF7CFFB20B9E2
:101DA0006869401E6861002005E0DDE90201C5E9BF
:101DB0000001FFF77BFF06B070BD000088290020FE
:101DC000740000202868806C00F0B3BBC46101A8D7
:101DD00000F0BABB009901A80822FFF75DB810B562
:101DE000044620680E2802D00F2809D017E0E068CA
:101DF0004168012917D1BDE81040006801F024B8FE
:101E00006068FFF727FB504901EB80006FF07041DD
:101E1000406C884203D001F01FF801F061F82046C1
:101E2000BDE8104008E010BD49490968012081F86B
:101E300054007047C02B002010B50446216860682C
:101E40000E290ED0142906D0172908D022290DD02A
:101E500028290ED002E0E16801F0D2F80020E0600D
:101E600010BD2146BDE8104001F0DBB86FF07040B6
:101E7000F5E7BDE81040FFF7A1BD334800214176EA
:101E800081660164016381624163C1628165C165EC
:101E9000C164416570472DE9F0432B4C607E0028FA
:101EA00085B04DD12A4DE063606600262968294F30
:101EB0004864A083608343F6FF78304601F0D5F88C
:101EC000A8B10020039002970220019043464FF0F2
:101ED000FF300090424600210020FFF771FD04EB27
:101EE00086016FF0704208624A64FFF767FD761C56
:101EF000022EE2DB0026DFF86080184FDFF86090EA
:101F000009EBC60001F036F907EBC60001F032F923
:101F100008EBC60001F02EF9761C022EF0DB206AD9
:101F2000FFF707FE2968012081F85400607605B0AC
:101F30000C48E06604F16C00BDE8F04301F041B8E4
:101F400005B0BDE8F0830000882900209F3F3F00D6
:101F500074000020DF1D0008C02A0020B02A0020E5
:101F6000800000207B1E000830B5094D2968497C9F
:101F70000446084850F82100C268126B83B000A9DB
:101F80009047286800AA2146083000F0B2FB37BD10
:101F900074000020780000200F21DFF8102602EBEB
:101FA000C1031B6C984201D2491EF8D50846704700
:101FB0000160006142608360101840F8042C704793
:101FC00010B504466068FFF7E7FFDFF8E0156368C7
:101FD0000A68D21A0A6001EBC00004F1080144301B
:101FE0000A68496802B1516009B10A6010BD026017
:101FF00010BDF8B5DFF8B4450546A06B0E46E168A4
:102000000818AF19401EB84203D3386808B900F069
:1020100030F8A06BB04207D256F8040C371A386873
:1020200010B900F026F83E462846FFF7B5FF04EB4E
:10203000C0072A467B6C00213046FFF7B9FF07F145
:10204000440006F10801026802B151600A600022F2
:102050004A600160206894F829102818206031B97E
:10206000E168081AA168814238BF0146A16028468C
:10207000F2BD786845193846A2E72DE9F143DFF84B
:102080002C45A56BE06882B04019401E019028469F
:102090004768016899BB019A791991422FD2894604
:1020A0000091D9F80480D9F8001041B3626B12F89E
:1020B0003120012A23D1E26A91420CBF0126002679
:1020C000FFF77EFF606BD9F8001000EBC1004246BD
:1020D00045604946284601F055F826B1606B0099E5
:1020E000401A2818606308EB05013846FFF781FFA6
:1020F000029919B1884201D3002005E047460198B2
:102100007D198542C3D30120BDE8FE83F8B50023C5
:102110000446002504E000F06FF844F8046B6D1CE1
:10212000B5EB910FF7D30546002400E0641CB4EB37
:10213000910F0BD200F05AF855F8046BCCEB0C2C35
:10214000A7EB0C07BE42F1D00320F2BD5B1C022BB3
:10215000DED300230446002504E000F04DF824F807
:10216000026B6D1CB5EB510FF7D30546002400E060
:10217000641CB4EB510F0CD200F038F8CCEB0C2CF3
:1021800035F8026BA7EB0C07BFB2BE42F0D00220BD
:10219000F2BD5B1C022BDDD300230246002409E0C4
:1021A0001D19FF26B5FBF6F6C6EB0626AD1B02F899
:1021B000015B641C8C42F3D30246002400E0641CE3
:1021C0008C420BD21E19FF27B6FBF7F712F8015B02
:1021D000BE19F6B2B542F2D00120F2BD5B1C022B53
:1021E000DBD309B101F00AF80020F2BD1F194FF04E
:1021F000FF0CB7FBFCFC70475E19FF27B6FBF7F737
:10220000C7EB0727F61B704710B5DFF8A043002087
:1022100084F828008022002104F1400000F0F1FF42
:10222000C0220021204600F0ECFFBDE810400C2247
:102230000021DFF87C0300F0E4BF2DE9F041DFF876
:102240006C43E06A40B9DFF8680341688068083091
:10225000B1FBF0F0851C03E0206900EBD000051D08
:10226000E80000F08CF85FEA000827D0616BE76AAD
:1022700001EBC800406800F108062069C200304642
:10228000FEF71AFE20696663C4F82C806A1E01E01E
:10229000401C4860904206EBC001F9D30020486022
:1022A000206921696062256160682818401A6060B1
:1022B00017B1384600F063F9002000E00120BDE8C6
:1022C000F08170B5DFF8E45205F128042078002889
:1022D00044D10120DFF8D862207071683068B1F510
:1022E000205F88BF4FF42051FFF710FFB06810B98E
:1022F00070688008B060DFF8BC02F06006F10C0086
:1023000000F05FFE281D5A21C1610021102205EB5B
:10231000C1038A40491C10291A64F7D30221C16005
:102320003268716881608B18143BE3602261002180
:1023300005E0E3684A1C03EBC1014A601146C2682C
:10234000521E9142F5D30121016202602169806829
:10235000FFF74FFEFFF771FF0120A06070BD10B5C1
:10236000DFF848124A684B6A521C4A604A6B02EB1B
:10237000C0046360002302F83030486210BD2DE9CC
:10238000F0410546FFF79DFFDFF82042206C8542B3
:1023900002D3E81C8008800000F10C052068A842E8
:1023A0001BD3206B6168884207D3401E2063FFF770
:1023B00044FF216B491C216378B96068D4F82480FC
:1023C000401E6060606B00EBC801496861620121DA
:1023D00000F83810B8F1000F01D100203FE0284686
:1023E000FFF7DAFD002601E066B9401C102811D283
:1023F00004EBC001496C39B18E68002EF5D07168CC
:10240000A94211D2B16809B90026EEE78E68716859
:10241000A942E9D346B92846FFF72FFE0028DED0AF
:102420004046FFF79CFFD8E77768216C781B0C319A
:10243000884238BF3D463046FFF7C2FD606B00EB77
:10244000C800002346602A4641463046FFF7B0FDEB
:10245000BD4203DAA919781BFFF7CBFD4046BDE862
:10246000F08128B15149CA6B026002B15060C86363
:1024700070472DE9F8430446FFF723FFE01C80086E
:1024800080004A4CE66B051D206C854238BF05462E
:1024900000E006468EB156F8041C3068A942F8D117
:1024A00008B171684160706808B131680160E06B23
:1024B000B0422ED13068E0632BE0A06BE16801EB05
:1024C0000008A8F10409D9F80000A8EB0007386853
:1024D00030B10020FFF7D1FDD9F80000A8EB0007CC
:1024E0003868B0B97868A84213DBC019401B061DD4
:1024F0003846FFF765FDE068401BE060606928181A
:1025000060617868401B1CBF3946FFF772FD46F8D2
:10251000045C3046BDE8F283002818BFFFF72FBFE8
:10252000704728B12149496B01EBC0004068083071
:1025300070471E49CA69521CCA61496B01EBC00150
:102540000A78521C0A70ECE70368184953F8083CF3
:102550004A6B02EBC3021378022B03DBCB690BB18E
:102560005B1ECB611178491E1170002101600020B3
:1025700070470F4A1060880880005060704710B59F
:1025800004001FBF0948406B10F8341000290BD01D
:10259000022909DA00EBC40041684868FFF729FD09
:1025A0002046BDE81040DAE610BD0000C828002033
:1025B000582B002009220008B1F90020B0F90030A2
:1025C0009342B8BF0280B0F90220B1F902309A42BA
:1025D000B8BF1A464280B0F90430B1F904209A42DB
:1025E000C8BF1A468280B0F90630B1F906209A4277
:1025F000C8BF1A46C280704700B9704710B509B30A
:102600000AB3B2F90030B1F900409C42B8BF23468A
:102610000380B2F90240B1F90230A342C8BF234699
:102620004380B1F90440B2F90430A342B8BF234655
:102630008380B1F90640B2F90630A342B8BF234601
:10264000C38010BD1146BDE810400822FEF724BC2F
:1026500002480068010018BF00477047C42B0020E3
:1026600058B10388CB1803808388C91881804188BA
:1026700051184180C1885118C180704710B582B08F
:10268000002458B1FFF755FF00900068006980688A
:10269000804700F058FE044600F01FF8204616BDA3
:1026A00010B5040082B017D00D480068006EA0423B
:1026B00008BF00F061FE2046FFF73BFF0090406935
:1026C00008B100F063FE0098006800F0DEFC00F046
:1026D00004F82046FFF753FF13BD00A8FFF734BFEF
:1026E0007400002000B9704780B5FFF71AFFC06979
:1026F00002BD10B5B1F90030B2F900409C42A8BF4C
:1027000023460380B1F90240B2F90230A342B8BFB8
:1027100023464380B2F90440B1F90430A342C8BF54
:1027200023468380B2F90640B1F90630B0F90410AF
:10273000A342C8BF2346C380B0F900209142A2BF84
:10274000B0F90610B0F90200814201DA002010BD94
:10275000012010BDB1F90620B0F902309A42A2BFA3
:10276000B0F90620B1F902309A420DDBB1F904202C
:10277000B0F900309A42A2BFB0F90400B1F90010DC
:10278000884201DB012070470020704770B50E4C75
:102790000546206814280E4614DA2846FFF7C1FEC5
:1027A00001697560080008D02068401C2060304630
:1027B00088472068401E206070BD3046BDE87040EC
:1027C000FFF73ABB70BD00BFC82B002038B50446E8
:1027D000FFF7A2FE050009D0FFF7ABFE00902246EE
:1027E000002100F00EFD00A8FFF7AEFE284632BD26
:1027F0002DE9F041040086B039D0FFF79AFE009031
:1028000003A800990822FEF747FB0098056A866A2C
:1028100000A8FFF799FE204600F0DFFD070026D054
:10282000204600F0EBFD8046B00704D52A4641461D
:1028300003A8FEF7A8FF2046FFF77BFE0090404666
:10284000FFF777FE01903846FFF773FE02900562AE
:1028500001980099C06908620198C46100A8FFF757
:1028600073FE01A8FFF770FE02A8FFF76DFE06B029
:10287000BDE8F08138B5044605480068457C022C67
:102880003CBF447400F078FD02480460284632BD25
:1028900074000020C029002080B500F037F94A6B91
:1028A000824205D0486300F099FABDE80240B0E2E8
:1028B00001BD80B500F02AF90A6B824205D0086399
:1028C00000F08CFABDE802409AE201BD70B5DFF875
:1028D00068150A68117C80EA01035B0705D5936BD4
:1028E000D56B1C682E681E602C601074084670BD85
:1028F000DFF8481509688968084738B5DFF83825D2
:102900001268B2F90A309942A4BFB2F90E308B4274
:102910001FDBB2F908309842A4BFB2F90C308342F1
:1029200017DBDFF81C35547C53F82440137CE56832
:10293000DB0707D50A460146EB69204601B0BDE832
:1029400030401847D26B13680A4601462046AC69EE
:10295000A04731BD10B5DFF8E0341B68B3F90A4079
:10296000A142A4BFB3F90E408C420FDBB3F908407B
:10297000A042B8BF2046B3F90C409442B8BF2246EB
:10298000824203DB00F003F8A468A04710BDDFF823
:10299000B0445B7C54F8234013460A460146204667
:1029A000E468704738B5DFF890442468B4F90850FB
:1029B000A842B8BF2846B4F90C509542B8BF2A4681
:1029C000824218DBB4F90A50A942B8BF2946B4F9CB
:1029D0000E509D42B8BF2B468B420CDBDFF8605493
:1029E000647C55F82440009313460A46014620466D
:1029F000E4682469A04731BD2DE9F84F00F086F95D
:102A000086B000F037F902D000F070F949E05818AC
:102A1000421E2819431E1098DDF844C04CEA0000FD
:102A200001283FD1DFF810040068B0F90AE0AEEBEE
:102A30000107012F09DB0699C91B0129069130DB2B
:102A4000DDF84CC071460CFB0766B0F90E70D71B61
:102A5000012F04DB069AD21B012A069221DBB0F972
:102A60000C209A1A012AA8BFAD1A169AB0F908309C
:102A7000A41A9C4217460BDADF193F1BEB1ABA1A4D
:102A8000E51806EBE70622F00702141907F007071E
:102A9000012D06DBDFF8A823407C52F8200000F06F
:102AA0003AF948E100F0FCF801E000F0EFF8019895
:102AB00006998842F5DA00F00DF9A2BFB0F90E00D0
:102AC00000998842F1DB00F0CFF807E000F0FAF857
:102AD00000F0D6F80AF1010A10988144AA45E4DA18
:102AE00000F0E5F800F00AF810B90A7C9207F1D47A
:102AF00000F0B4F8EAD052F82000E7E70499FFB2FA
:102B000027FA01F012998F40A8EB0108CA49096819
:102B100070472DE9F84F00F0F9F886B000F0AAF8F8
:102B200002D000F0E3F86CE0DDF844C05818109BC8
:102B30002A19401E521E4CEA0303012B62D1BE4BE0
:102B40001B68B3F90AE0AEEB0107012F09DB069918
:102B5000C91B0129069154DBDDF84CC071460CFB02
:102B60000766B3F90E70C71B012F04DB0698C01B64
:102B70000128069045DBB3F90C00101A0128A8BF04
:102B80002D1AB3F908000027844232DA071B129A83
:102B9000ED1B012A0CD0022A12D0042A18D0082AD0
:102BA0001ED0102A1ED0182A18BF202A1DD020E0BF
:102BB00006EBE70627F00700041907F0070718E0FF
:102BC00006EBA70627F00300041907F0030710E03F
:102BD00006EB670627F00100041907F0010708E07B
:102BE000BE1904E006EB470601E006EB8706044643
:102BF0000027012D05DB92485A7C50F8220000F096
:102C00008AF898E000F04CF801E000F03FF80198F5
:102C100006998842F5DA00F05DF8A2BFB0F90E001F
:102C200000998842F1DB00F01FF807E000F04AF855
:102C300000F026F80AF1010A10988144AA45E4DA66
:102C400000F035F8FFF75AFF10B90A7C9207F1D46B
:102C500000F004F8EAD052F82000E7E7C96B159AB3
:102C6000D1F800B0002A70474FF000080396A14643
:102C7000C24670470027149EBCF1000F15467047EE
:102C80006D480068C06BC0F800B07047019811999A
:102C9000401C0190009808180090139886197047FE
:102CA00012980091C0F10800049001977047B8F1A4
:102CB000000F06D10398401C03904FF0080810F84D
:102CC000017D704708601098029B00994844421E9D
:102CD000484667E6119800990818401E0290564829
:102CE00000680299B0F90A20914270471598069B36
:102CF00005900496139803901298029011980190F1
:102D0000109800902046DCF80040204704464D48CB
:102D1000D0F800C07047159A0592049703962B4689
:102D2000139A0292129A0192069A00920A4621463A
:102D3000C4686468204707B0BDE8F08F3E4801686A
:102D40003F484A7C50F82200C268126B0831104795
:102D500070B582B0FFF7F2FF00F060FB040013D102
:102D60000025284600F081F9009050B1009AD26801
:102D7000526A0C2100A8904701002DD00098884786
:102D800004436D1C022DECDB24BB00F05BFB012532
:102D900043F6FF76284600F068F90090C0B1284657
:102DA000FFF768FD0420FFF7A3FD334632460021FC
:102DB0000020FFF7F7FD0020FFF79AFD009AD26888
:102DC000526A0E2100A8904701001CBF0098884756
:102DD0006D1EDFD5204676BD012076BD164A184906
:102DE0001268527C51F82210096909680847124A92
:102DF00013491268527C51F8221009694968084742
:102E00000D4909680A7C52074CBF896BC96B086081
:102E10007047094909680A7C52074CBFC96B896B26
:102E20000860704705490968496808470349096807
:102E3000096808470000000074000020C00000205E
:102E400078000020B42B002002498A6802B988600B
:102E5000FFF7FEBBA4000020FFF7E4BF10B55B49FD
:102E60005B4C0020086070220021204600F0C9F968
:102E700004F17800BDE810400822002100F0C1B93B
:102E80005349086770472DE9FC4105460E46174631
:102E900098460420FFF72CFD04464D48406FC16C56
:102EA000006D4D198619CF198044ADF80050ADF86A
:102EB0000470ADF80260ADF8068000A8FEF711FFBF
:102EC00048B143463A4631462846FFF76BFDFEF7C8
:102ED000EDFE0028F5D12046FFF70AFDBDE8F3819D
:102EE00080B50021002000F0F9FABDE80050394912
:102EF00043F6FF7213460846C5E710B5334C206809
:102F000058B90120206000F0F3FA00F00DFB3248C0
:102F10006060201DBDE8104053E010BD70B52F4823
:102F2000016849084900016001212D4881602D494F
:102F3000016000682C49884200D0FEE7FFF7DDFF02
:102F40002A4C2E20207000F0E1FA214901F1680599
:102F500001F11406E868021DC2638063006400F199
:102F600008023260407C01EB80000831806FC2684B
:102F7000126B90470FF280003065A868B060E86877
:102F8000083030600120307100F0EAFB70630320EC
:102F900028706FF07040F06130620020FFF742FF50
:102FA0006FF07F40FFF742FF11486060FFF7D0FEEF
:102FB00004460021002000F0DFFBFEF76CFF2046F6
:102FC00070BD0C490A68426008607047902B002071
:102FD0000000002001C0FFFF5D2E0008002000E07F
:102FE00000300240C2A507F4CDB5E8B5A42B0020FF
:102FF000D07F0008B82B002055290008FB280008C6
:1030000010B50C46002818BF002C82B008D0FFF77E
:1030100090FA00902146FEF78DFC00A8FFF794FA85
:1030200013BD38B50D00044608D000F0E7F928B10B
:10303000AC602946BDE83440FFF7A8BB31BD0000B5
:1030400081694A4A52F82130834204BF036842F83A
:103050002130416809B102680A60016809B142681B
:103060004A600021016041607047022801DB0020B6
:1030700070473E4951F8200000E0006800281EBF5C
:10308000C16809680029F8D17047FFF7EAB9F8B5B7
:103090001F46022F04460D46164603DA1C20FFF792
:1030A000E8F908B90020F2BD0DB105610AE02F4929
:1030B00051F8271031B100E011460A68002AFBD10F
:1030C0000969016187618682C460002101604160F5
:1030D0008160F2BDB4E770B560B381690C46022C23
:1030E00028DA224A52F824301BB942F8240028E09A
:1030F00023465C68002CFBD1E3B1DC68C56824681A
:103100002E68A642B8BF1B68F6DBB44204BF848AAF
:10311000012C06D11C6824B12346DC682468B44223
:10312000F8DA5C68002C1DBF20605968416042F8E5
:10313000210001E0012070BD5860984208BF0023C3
:103140000360002070BD38B51C46FFF7A0FF0500E6
:1031500009D0FFF7C0FFE868006820B9044800689C
:1031600000EB84008565284632BD00007800002011
:103170007400002002490A6802600860704700007D
:10318000C829002081423ABF53189842FDF784BEF7
:103190008018990707D0521E24BF13F8011D00F8AC
:1031A000011DF6D8704781071CD1103A07D330B4FF
:1031B00033E93210103A20E93210F9D230BC103223
:1031C000121F24BF53F8041D40F8041DF8D838BF5F
:1031D000121D521E24BF13F8011D00F8011DF8D85E
:1031E000704700BF083A07D333E90210083A40F8A5
:1031F00004CD40F8041DF7D20832EAE7002200F0BF
:10320000D3BA10B502E000F8011B521E002A18BF05
:1032100010F00303F7D193081AD04FF0013402F0F5
:1032200003024C4308E040F8044B40F8044B40F8DC
:10323000044B40F8044B1B1F042BF4DA002B1CBF7B
:1032400040F8044B5B1EF9D102E000F8011B521E4E
:10325000002AFAD110BD000038B5002502280C461E
:1032600007DAFFF702FF20B1C268926A2146904751
:103270000546284632BD0821EEE70921ECE7134850
:103280000068407CF9E7124951F82000C268926A50
:103290000821104780B5FFF7E8FE28B1C268D26A5E
:1032A000BDE808400221104702BD08480068407C84
:1032B000F0E7074951F82000006940687047044969
:1032C00051F8200000690068704700007400002079
:1032D00078000020B0B34108490001D101207047B7
:1032E0008108890001D102207047C108C90001D1BD
:1032F000032070470109090101D1042070474109E9
:10330000490101D105207047010A090201D10820B5
:103310007047410A490208D0010B090305D0C10BCF
:10332000C90302D0010C090401D110207047810C9F
:10333000890401D11220704710F07F4F01D118206D
:1033400070472020704710B5FFF7C4FF0024012804
:1033500008BF01240ED0811E072938BF082409D3D5
:10336000A0F10901082938BF102403D3113810280F
:1033700038BF2024204610BD80B500F045FA00F08B
:1033800065FABDE80140FEF74FBD000038B50446C0
:10339000FFF7CFF800908089451E0098858100A82E
:1033A000FFF7D2F82DB215B92046FFF7E8F831BD86
:1033B0002DE9F041069F04460D4616469846D4F87E
:1033C00008C0DCF804C04346324629462046E047A0
:1033D000761C7F1EF3D1BDE8F08138B5044600F0BD
:1033E00047FA050008D0A54201D1002504E0FFF707
:1033F00098F8006AA042F4D1284632BD00B970475F
:1034000080B5FFF78EF8806902BD000010B5284C2A
:103410006068FFF726F80020606010BD10B5244CEE
:10342000606868B920688000FFF723F8606008B919
:10343000012010BD1F48A06004F10800FFF7C1FD86
:10344000002010BD2DE9F84F00F01AFA8046002444
:10345000DFF86490DFF864A0194F0DE0F0B2FFF7D9
:10346000C6FC0246F1B2204600F04CFA761C5E45DE
:10347000F4DB38684574641C444517DA2046FFF7CE
:10348000F4FD0028F7D03868457C44742046FFF7E7
:10349000F2FE0928EDDA5AF8240000694845E8D020
:1034A0002046FFF7EAFE83460026E0E7BDE8F18FFD
:1034B000940000200D34000860800008780000208F
:1034C000740000200449096888840020704702497C
:1034D00009684884002070477400002038B50C4605
:1034E000FFF7F5FF05462046FFF7ECFF284332BD06
:1034F00080B54FF420510348FFF73BF80248FFF72F
:10350000BFFC01BDC8000020DC4F00087047000070
:10351000704770470800411E0028FBD17047080023
:10352000411E0028FBD1704710B5A0B000A814219F
:1035300000F0FCF905A8682100F0F8F9002300224A
:1035400014491548FFF7FFFD04004FF488724FF44B
:10355000F071002000F0B6F94FF488724FF4F0716A
:10356000002000F09BF90020029000A9200000F04C
:103570007FFC0A480D900A480E900A4810900A48AD
:1035800014900A4B0A4A05A9200000F090FC20B0D4
:1035900010BD000048800008347F00081135000885
:1035A00013350008153500081F3500085B5C00085E
:1035B0008B6F000880B5012912D0022900F0BA8073
:1035C000032900F0B980042900F0BA80052900F031
:1035D000B980062900F0BB800E2900F0AF80BBE067
:1035E0000120FFF795FF0120FFF792FF0120FFF771
:1035F0008FFFE020FFF78CFF0120FFF78AFFE0201C
:10360000FFF786FF0320FFF784FFB020FFF780FF5E
:103610000820FFF77EFF8020FFF77BFF0120FFF7E8
:1036200078FFDF20FFF775FF0120FFF772FF0F2003
:10363000FFF76FFF0020FFF76CFFF020FFF768FF38
:103640000020FFF766FF3A20FFF762FF6020FFF7D8
:1036500060FFE220FFF75CFF2220FFF75AFF032004
:10366000FFF757FF0420FFF754FFE620FFF750FF56
:103670000120FFF74EFF4520FFF74BFF4720FFF7E4
:1036800048FFB420FFF744FF0220FFF742FF0D2060
:10369000FFF73FFF0020FFF73CFF2B20FFF739FF2C
:1036A0002820FFF736FF0020FFF733FF0020FFF749
:1036B00030FF0020FFF72DFFB620FFF729FF012084
:1036C000FFF727FF1D20FFF724FF0020FFF721FF52
:1036D0000C20FFF71EFF0920FFF71BFF0020FFF75C
:1036E00018FF0020FFF715FF2A20FFF711FF002029
:1036F000FFF70FFF0020FFF70CFF0120FFF709FF86
:10370000DF20FFF706FF2B20FFF702FF0020FFF767
:1037100000FF0020FFF7FDFE0120FFF7FAFE0F205B
:10372000FFF7F7FE2920FFF7F3FE2C20FFF7F0FE4E
:10373000002013E0002011E000200FE000200DE049
:1037400000200BE02920FFF7E3FE002006E0282000
:10375000FFF7DEFE002001E05FF0FF3002BD000059
:10376000034904480968497C50F82100704700BFAC
:1037700074000020A8290020074A084B1080084A3E
:1037800011801B68074A5B7C52F823300A460146C9
:103790001846DB681B6A1847CC2B002074000020F9
:1037A000CE2B002078000020401810F0030308D032
:1037B000C91A1FD3DB0748BF00F8012D28BF20F826
:1037C000022D130030B414461546103928BF20E9E5
:1037D0003C00FAD8490728BF20E90C0048BF40F850
:1037E000042D890028BF20F8022D48BF00F8012DC4
:1037F00030BC7047C91818BF00F8012DCB0728BF8F
:1038000000F8012D7047000010B50E4C0E482168DD
:10381000497C50F8210050B1C1680968042903D0DF
:1038200000680028F8D102E008B1FFF753FC2068D7
:103830000021016600F108014161BDE81040FFF779
:103840007DBA00BF740000207800002010B5074C3E
:103850002068006BFFF7C2FAFFF7D2FA2068406BCE
:10386000FFF7BCFABDE81040FFF7D3BA74000020A0
:1038700080B5FFF7C3FD10B1FEF753FEC06902BD6E
:1038800038B5002400252846FFF7EFFB00B1641C83
:103890006D1C022DF7DB204632BD000070B582B0F2
:1038A00000F02CF80126009050B100F01FF80A211A
:1038B00000A89047030003D000F01CF898470026AA
:1038C000304676BD70B582B000F018F80126009041
:1038D00050B100F00BF80B2100A89047030003D073
:1038E00000F008F898470026304676BD009AD26866
:1038F000526A704700982A46214670470C46154682
:10390000FFF7B3BB70B582B0FFF7F8FF0126009058
:1039100050B1FFF7EBFF102100A89047030003D040
:10392000FFF7E8FF98470026304676BD002200F0FA
:10393000FBBA00000846704702E00846704700BF27
:103940000068401A401E70471046704702E010465B
:10395000704700BF4068801A401E7047104670478D
:1039600010467047F6E7F5E7084670470846704787
:10397000E6E7E5E710B58468D4F8F040A04710BD4D
:103980008368D3F8EC301847F8B504460D46A768AD
:103990001646FFF7F5FF009032460098B96A81EAB3
:1039A00000032946204601B0BDE8F040E2E710B52B
:1039B00082B0009203E010B582B000930B46846899
:1039C000D4F8E840A04713BD10B582B0049C009421
:1039D000F5E710B586B00D9C05940C9C04940B9CE7
:1039E00003940A9C0294099C0194089C00948468A6
:1039F000D4F8E440A04706B010BD30B50FF2E04364
:103A000083B0D3E90045CDE900450091019200AAB9
:103A100080690321FFF7CEFD37BD38B5044600F0BD
:103A2000EFF9A5684FF4FA70FEF723FDA866A96BBD
:103A30002868C91DC9104843FEF71BFDE86600222F
:103A4000A0690121FFF7B6FD0446D5F80811284604
:103A50008847D5F8B01028468847012C01DB0120A3
:103A600032BD002032BD70B500F00BF8A068856053
:103A7000C66070BD70B500F004F8A06805604660CF
:103A800070BD04460D461646BAE1704770B582B067
:103A9000846807987A4D002828680DD090B9069858
:103AA00000902046D4F8A860B047D4F8A800286059
:103AB0007448C4F8A80073BD010003D0C4F8A8007E
:103AC0000020286073BD0146086CD1F8D4108069CD
:103AD00008470146086CD1F8D810806908472DE9DD
:103AE000F84300F021F800F016F8D5F8DC30306823
:103AF000806901B0BDE8F04318472DE9F84300F0B4
:103B000013F800F008F8D5F8E0303068806901B0AB
:103B1000BDE8F0431847A9EB0800391B401C491CBD
:103B200001FB00F2099970478568089F009705F12D
:103B300040068846D6F868C014469946284660472D
:103B400070B505460E46144600F05AF9A96861B3EF
:103B500001F1B8003831262E02D0272E10D070BDCA
:103B60000A68102A02D0122A05D070BD464AC461E4
:103B70000260CA6770BD046244494160816070BDE3
:103B80000968102902D0122908D070BD21001ABF7F
:103B900044623F4900210161C16070BD21001ABF2C
:103BA00084623C4900214161816170BD012914D0CA
:103BB0000A290CD00B290CD00C290CD00D2911D0BE
:103BC000162919D0172912D0182917D018E0324811
:103BD0007047324870473248704700688068F43058
:103BE0008068704700688068D0F8F400704700680B
:103BF0008068F430406870472A4870472A48704708
:103C000000207047491E80680D2924D8DFE801F0A4
:103C100007090B0D2323230F11131315191D00681A
:103C200070474068704780687047C0687047806B15
:103C30007047002070470120704770B190F8340041
:103C400006E050B1406B401002E030B1406B801094
:103C500000F0010070474FF0FF307047012902D19A
:103C60008068406C704700207047806800220A809E
:103C70004A800268521E8A804068401EC880704791
:103C8000BC2B00208B3A0008C73A0008D33A000842
:103C9000DF3A0008FB3A0008673A0008753A000866
:103CA0001B3A0008413B00088D3A00082DE9F0411D
:103CB000856895F82600800782B00F4690461C461E
:103CC00028462ED5D5F8003198470646D5F8043158
:103CD000424639462846984707462869A9696A69CD
:103CE000EB698642B4BF01200020B142B4BF01217C
:103CF00000219742B4BF01220022BB42B4BF01237E
:103D0000002300F019F809D0686800F075F82868F9
:103D1000D5F8A8C0431E00212846E0473A46314660
:103D20002846D5F8AC309847D5F8A4202146284637
:103D300002B0BDE8F04110470843104318437047F4
:103D4000F8B5846894F8260080070E46174620468A
:103D500047D5D4F8003198470546D4F804313A469F
:103D6000314620469847D4F898300646180003D0CC
:103D700000220121204698472069A1696269E36910
:103D80008542B4BF01200020A942B4BF0121002117
:103D90009642B4BF01220022B342B4BF01230023E4
:103DA000FFF7CAFF09D0606800F026F82068D4F851
:103DB000A870431E00212046B847D4F8AC303246E4
:103DC000294620469847D4F8A01020468847D4F8C2
:103DD0009830054618000CD0012200212046984753
:103DE00007E0D4F8AC309847D4F8A01020468847B4
:103DF00005462846F2BD7868401E009000227047B4
:103E000010B50446A068A8B94FF4BA70FEF731FBAC
:103E1000A0604FF4BA720021FFF7F3F9A06800F137
:103E200020010222CA800C6201220A600FF20901FD
:103E3000C0F8081110BD000010B590B0044608A8E5
:103E40000FF2A4012022FDF737F800A80FF2B80105
:103E50002022FDF731F8606B08AA04F5807152F852
:103E600020200A6000AA10B052F82000486010BD5F
:103E700038B505460C46FFF7C3FFA8682168C16244
:103E800061680163A1684163490707D50168426819
:103E900002604160C26881688260C160A1898184DA
:103EA000216919B10129B8BF0021016231BD2DE995
:103EB000F04104460D4616469846FFF7A1FFA76855
:103EC00007F5867029466822FCF7F6FF2046B047C2
:103ED0002046C047206980688047B862BDE8F0810D
:103EE00000000000000000003539000839390008E2
:103EF0003B3900083F390008493900084D390008AE
:103F00004F390008533900085D390008613900084D
:103F10006539000867390008693900086D390008FB
:103F2000713900087339000800B500BF13009646C8
:103F30009446103928BFA0E80C50FAD85FEA417CBB
:103F400028BF0CC048BF40F8042BC90728BF20F881
:103F5000022B48BF00F8012B00BD0000F8B50C464D
:103F6000069900291CBF0898002815461E460BD04C
:103F7000079F7A00FCF790FF34B12046A46864687C
:103F80003B4632462946A047F1BD2DE9F047089C43
:103F9000002C1CBF0A9E002E80460D4691469A4674
:103FA0001DD0099F45B1D5F808C0DCF804C03B46D8
:103FB000524649462846E047D8F81010206809685C
:103FC000884730802DB1AB681B6852464946284669
:103FD0009847B61C241D7F1E09F10109ECD1BDE8EC
:103FE000F08738B5044600F0ADFB0D46FEF7A1FAA8
:103FF0000090B0F90610C268691A02FB010000992E
:10400000B1F9041000EB4400A0EB410000F11804EA
:1040100000F0EBFB204632BD2DE9F84FDDF828A07B
:104020000C9D9AF800300F9F9146DFF8E0279A5CCC
:1040300088460B99C1F1080622FA01F4DFF8D0276F
:104040001268127C0D9912F003020CD0022A1AD0C9
:1040500047D3032A45D0BDE8F18F1AF8012FDFF8C6
:10406000AC07145C0826B54298BF2E46AD1B04F081
:10407000010051F8200027F8020B6408761EF6D1E3
:10408000002DEAD1E7E7D1F804B001E000F053F8E1
:10409000B54298BF2E46AD1BB8F1000F13D00BE010
:1040A000E00703D500F0BCF8A7F800B0BF1C761EEF
:1040B00009F1010912D06408002CF1D107EB460781
:1040C000B1440BE0640814B907EB460706E0E007CB
:1040D00048BFA7F800B0BF1C761EF3D1002DD5D184
:1040E000B9E7006980688047834601E000F023F863
:1040F000B54298BF2E46AD1BB8F1000F10D0E007B7
:1041000005D500F08DF838888BEA00003880BF1C98
:104110006408761E09F10109F1D1002DE6D19AE774
:10412000E00703D538888BEA00003880BF1C64089C
:10413000761EF5D1F1E71AF8011FDFF8D0060C5C06
:10414000082670472DE9F84FDDF828A00B980C9D44
:10415000DDF834B00E9F8846C0F104069AF80010CE
:10416000400001FA00F4DFF8A8060068007C10F0B7
:104170000300914603D0022818D037D348E0F6B2A6
:10418000B542B8BF2E46F6B2AD1BE4B2A009761E0A
:104190005BF82000A400F6B2002E27F8020BF4D141
:1041A000002D35D01AF8014F0426E8E7F6B2B542E3
:1041B000B8BF2E46F6B2AD1BC0210C4209D0E4B206
:1041C000A0095BF820003880B8F1000F01D000F0A2
:1041D00027F800F01FF809F10109EDD1C5B11AF86F
:1041E000014F0426E2E71AF8014F0426F6B2B54261
:1041F000B8BF2E46F6B2AD1BC020044203D03888AB
:1042000080F0FF00388000F005F8F5D1002DEAD1EC
:10421000BDE8F18F761EBF1CA400F6B2002E7047D9
:10422000D8F80830009A1B684946404618472DE9DF
:10423000F84FDDF828A00B980C9DDDF834900E9E09
:1042400090469B469AF80020830002FA03F7DFF8B5
:10425000C0351B681B7CFFB23A090C4613F0030300
:10426000C0F1020103D0022B24D069D37DE030B12C
:1042700059F8220026F8020B6D1E1AF8017F022D54
:1042800011DB681005F00105391159F8211026F8E5
:10429000021B401E07F00F0159F8211026F8021BDF
:1042A0001AF8017FF0D1002D5FD0381159F82000A5
:1042B00030805AE070B3F0210F421EBF59F822003F
:1042C0003080002C01D000F052F8B61C08F1010833
:1042D0006D1E1DE0F0210F421FBF381159F820005C
:1042E0003080002C01D000F042F817F00F001EBF04
:1042F00059F820007080002C06D0A3681B685A462D
:1043000008F1010120469847361D08F10208AD1E4C
:104310001AF8017F022DDDDA3DB33F091EBF59F8BF
:1043200027003080002C20D0A3681B685A464146E5
:10433000204601B0BDE8F04F18471AF8017F02216E
:10434000C9B28D42B8BF2946C9B26D1AC020074212
:1043500003D0308880F0FF003080491EB61C3F013A
:10436000C9B20029F2D1002DE7D1BDE8F18FA368D1
:104370001B685A464146204618472DE9F04700F091
:1043800054F8DDF828900B9E10F003000C46904680
:104390009A4602D0022809D019E017F8010B59F803
:1043A000200026F8020B6D1EF7D110E038780028A7
:1043B0001EBF59F820003080002C05D0A3681B6870
:1043C000524641462046984700F029F8EED1BDE814
:1043D000F0872DE9F84300F028F80A9E10F003005A
:1043E0000C469046994602D0022807D015E02A468E
:1043F00039463046BDE8F843FCF74EBD3878002812
:104400001CBF3080002C05D0A3681B684A4641467B
:104410002046984700F003F8F0D1BDE8F183B61CC0
:104420007F1C6D1E08F101087047DFF8E403006887
:10443000007C089F099D70472DE9F44F804600F0ED
:1044400081F98AB08A461D46FEF773F807904069E5
:1044500008B1FEF76EF806900798C068089007A8A4
:10446000FEF772F818988244069870B1DFF8A0033E
:104470000068007C0321084207D114980A9A009032
:104480002B4606985146FEF793FF0A995046FFF7D0
:10449000A8FD81461598179C10280BD1002605E031
:1044A00000F088F8FFF75AFD00F072F81498864281
:1044B000F6DB5FE018280BDB002605E000F07AF859
:1044C000FFF763FD00F064F814988642F6DB51E0D4
:1044D000199F082818D1002607E0CDF8089000F0B1
:1044E00051F8FFF776FF00F053F81498864241DA4E
:1044F0000A988319002FF0D0CDF80C90029700F0A5
:1045000041F8FFF73AFFEEE70FB90FF22837002620
:1045100005E000F043F8FFF78AFE00F039F8149840
:10452000864227DA0A9800EB060B1598012804D07A
:1045300002281AD00428ECD0EFE700F003F9FDF7C9
:10454000F8FF0790CDF81490039702955B46079803
:104550000490524618980190009440460699FFF73F
:104560005BFD07A8FDF7F0FFD7E700F017F8FFF7AE
:10457000E9FDD2E7069810B106A8FDF7E5FF0BB0FC
:10458000BDE8F08F01950094524606994046704769
:104590001698041908988144761C70471898CDF82D
:1045A000109003970295019000945B46069952463D
:1045B00040467047CDF808900195009452460A98FD
:1045C00006998319404670472DE9F04F904F814678
:1045D00038680D46C16B85B0096804919346006E3A
:1045E0001C46FDF7A6FF019059462846FFF7F9FC47
:1045F00080460198C068DDF838A00390601B441C19
:1046000001984069D0B1FDF794FF02902346AAEBD0
:104610000B00401C00905A4602982946FEF7C8FE3F
:1046200002A8FDF791FF09E00499224689B24046AD
:1046300000F03AF9039880440BF1010BDA4510DBE6
:104640003868007CC007EFD5D9F810008068804733
:1046500025464646318841406D1E26F8021BF9D199
:10466000E8E700F095F805B0BDE8F08F80B500925E
:10467000FFF7AAFF01BD2DE9FC47654D04462868F8
:10468000006E884616469946FDF753FF0190406933
:1046900008B1FDF74EFF009031464046FFF7A1FC00
:1046A00007460198D0F80CA02868017CC90711D5ED
:1046B0002069806880470446009808B100F026F819
:1046C000388860403880761C0198C068C719B145A9
:1046D000F2DA13E0C06B0468009840B1009800F073
:1046E00015F8761C3C80B1455744F7DA06E0A9EB93
:1046F0000600401C3C80401E5744FBD100F048F8A7
:10470000009808B100F071F8BDE8F38783681B6872
:104710003246414618477CB500F014F80C46154661
:104720001E46FDF706FF00F02FF80680019840694D
:1047300028B1FDF7FEFE00F02EF800F056F800F06C
:1047400027F873BD32480068006E7047F0B5064622
:10475000FFF7F8FF83B00C461546FDF7EAFE00F0C0
:1047600013F80746306980688047398848403880A8
:104770000198406928B1FDF7DCFE00F00CF800F06C
:1047800034F800F005F8F7BD01902946204628E4EA
:1047900001A8FDF7D9BE00902A4683681B68214610
:1047A000184780B508461146FFF71BFC008802BD7C
:1047B00010B5806882B00C46FDF7BBFE0090808883
:1047C00020800098C08860800099009809898088BE
:1047D0000818401EA080009900984989C0880818D0
:1047E000401EE08000F001F813BD00A8FDF7ACBE4C
:1047F000012902D10FF27C00704700207047162972
:1048000001D1044870470020704700006C7B00080D
:104810007400002073620008006810B1C3681B6A4E
:1048200018477047006810B1C268926A10474FF08D
:10483000FF3070470000000001000000020000008F
:104840000300000004000000050000000600000056
:104850000700000008000000090000000A00000036
:104860000B0000000C0000000D0000000E00000016
:104870000F00000004000000394400086D460008E5
:1048800077460008C9450008A347000817470008F5
:104890004D47000819480008FF4700082548000850
:1048A000F1470008B147000810B5830744BF20F85E
:1048B000021B521E530813D0042B01EB01440BDBE7
:1048C00040F8044B40F8044B1B1F40F8044B042BEA
:1048D00040F8044BF4DA1BB140F8044B5B1EFAE7D6
:1048E000D20748BF018010BD00000000000000009A
:1048F0002020202020002000484848000000000020
:104900005050F850F85050002078A07028F0200047
:10491000C0C81020409818006090A040A89068007F
:1049200060204000000000001020404040201000A7
:104930004020101010204000005020F820500000AF
:10494000002020F82020000000000000006020402F
:10495000000000F80000000000000000006060009F
:104960000008102040800000708898A8C888700057
:104970002060202020207000708808304080F800DF
:10498000708808300888700010305090F8101000BF
:10499000F880F00808887000304080F08888700047
:1049A000F8081020404040007088887088887000A7
:1049B0007088887808106000006060006060000007
:1049C0000000606000602040102040804020100007
:1049D0000000F800F8000000804020102040800017
:1049E000708808102000200070880868A8A870004F
:1049F000708888F888888800F08888F08888F000B7
:104A00007088808080887000E09088888890E000BE
:104A1000F88080F08080F800F88080F0808080004E
:104A20007088808098887800888888F888888800CE
:104A3000702020202020700038101010109060008E
:104A40008890A0C0A0908800808080808080F8003E
:104A500088D8A8A8888888008888C8A898888800E6
:104A60007088888888887000F08888F0808080004E
:104A700070888888A8906800F08888F0A0908800E6
:104A80007088807008887000F82020202020200086
:104A9000888888888888700088888888885020005E
:104AA000888888A8A8A85000888850205088880046
:104AB0008888885020202000F80810204080F800C6
:104AC00070404040404070000080402010080000CE
:104AD00070101010101070002050880000000000AE
:104AE00000000000000000F840201000000000005E
:104AF00000007008788878008080B0C88888F0004E
:104B000000007080808870000808689888887800A5
:104B100000007088F8807000304840E0404040005D
:104B200000007888887808708080B0C888888800FD
:104B300020006020202070001000301010109060C5
:104B4000808090A0C0A090006020202020207000D5
:104B50000000D0A8888888000000B0C88888880035
:104B600000007088888870000000F08888F08080DD
:104B700000007888887808080000B0C8808080002D
:104B8000000078807008F0004040E040404830006D
:104B90000000888888986800000088888850200075
:104BA00000008888A8A85000000088502050880085
:104BB00000008888887808700000F8102040F8000D
:104BC0001020204020201000202020202020200025
:104BD00040202010202040006890000000000000CD
:104BE0001820000000000000C020000000000000AD
:104BF000708800000000000050000000000000006D
:104C0000689000000000000000000060202070009C
:104C1000006090F08888B08020007088F888880054
:104C200020007008788878003860A0B8E0A0B8004C
:104C3000704848E848487000E0407048487040E0DC
:104C40000000D02878A05800A040A01078887000FC
:104C50006020302830207000708898A8C8887000C4
:104C600000007098A8C8700000007088F88888005C
:104C70000000F880E080F800000070202020700024
:104C8000000070888888700000008888888870001C
:104C9000000088C8A898880020002020202020003C
:104CA00020002040808870001820000000000000D4
:104CB000C0200000000000002050000000000000A4
:104CC000500000000000000068900000000000009C
:104CD00000000000000000200000000000000000B4
:104CE000002070A0A0A87020304040E04048B000F4
:104CF00000008870507088008850F820F82020004C
:104D000020202000202020003048205020906000EB
:104D10008800000000000000F888A8B8A888F80003
:104D20007008788870000000002850A0502800000B
:104D3000000000F8080800000000007000000000FB
:104D4000F888A88898A8F800F80000000000000083
:104D500020502000000000000020702000700000A3
:104D600060902040F0000000E0106010E0000000C3
:104D700018200000000000000000888888C8B0806B
:104D8000789898781818180000000030300000005B
:104D900040C04040E000000070888888700000003B
:104DA00000A0502850A000008890A050B05078106B
:104DB0008890A040B8081038C040C048D8283808AB
:104DC0000088502050880000002000F800200000DB
:104DD000103070FC70301000203038FC383020006B
:104DE000002070F820200000002020F87020000033
:104DF00000082868F860200000040408089050208B
:104E00009D00FFFF9E00FFFF9F00FFFFA000FFFF30
:104E1000A100FFFFA200FFFFFFFFFFFFFFFFFFFF5B
:104E2000FFFFFFFFFFFFFFFFFFFFFFFFFFFFFFFF92
:104E3000FFFFFFFFFFFFFFFFFFFFFFFFFFFFFFFF82
:104E40007E00FFFF7600FFFF7F00FFFF8000FFFF77
:104E50008100FFFF8200FFFF8300FFFF8400FFFF50
:104E60008500FFFF8600FFFF8700FFFF8800FFFF30
:104E70008900FFFF8A00FFFF8B00FFFF8C00FFFF10
:104E80008D00FFFF8E00FFFF8F00FFFF9000FFFFF0
:104E90009100FFFF9200FFFF9300FFFF9400FFFFD0
:104EA0007D00FFFF9500FFFF9600FFFF9700FFFFCB
:104EB0009800FFFF9900FFFF9A00FFFF7700FFFFB8
:104EC000700079007000780070007A0070007C003B
:104ED00070007B006600FFFF6800FFFF23007D007D
:104EE000710079007100780071007A0071007B0018
:104EF000720079007200780072007A0072007B0004
:104F00006900FFFF75007C00730079007300780072
:104F100073007A0073007C0073007B009B00FFFF2E
:104F20006E00FFFF740079007400780074007A004E
:104F300074007B00390078006A00FFFF6500FFFF06
:104F40004100600041005F004100610041006300DA
:104F5000410062006700FFFF6B00FFFF43007D0020
:104F60004500600045005F004500610045006200AB
:104F70006400600064005F0064006100640062001F
:104F80006C00FFFF4E0063004F0060004F005F00A9
:104F90004F0061004F0063004F0062009C00FFFF64
:104FA0006F00FFFF5500600055005F005500610075
:104FB0005500620059005F006D00FFFF590062005C
:104FC0009000FF00004E0008E8480008E84800088C
:104FD000C04F000820007E0006060100F57800089A
:104FE000177A00082D7A0008337A000800000000C4
:104FF0000000000008080101C84F0008070507006D
:1050000010B5040000210020002C01D101204CE04B
:1050100094F83500002805D1002084F834002000E1
:10502000FCF77CF8022084F835002068006840080E
:10503000400021680860FBF799FEDFF87010B0FBB4
:10504000F1F1226851606268DFF864309A4201D25F
:10505000491C07E04FF4967251434FF47A72B1FB4A
:10506000F2F1491C226811620100200000F0C9FA27
:105070002168C861E069216A0843216808602069E5
:10508000E1680843216888606069A1690843216874
:10509000C8602068006850F00100216808600020A6
:1050A000A063012084F83500002010BD40420F00AD
:1050B000A186010010B50021002200230024016810
:1050C0008969C90751D501688969490727D50168E8
:1050D0004969C90911F0010102685268C2F38022CE
:1050E00012F0010203685B699B0813F00103046876
:1050F0006468C4F3402414F00104012906D1012A94
:1051000004D1002B02D100F037F99EE0012B40F0D2
:105110009C80012C40F0998000F042F995E00168F4
:105120004969890911F0010102685268C2F38022BD
:1051300012F0010203685B699B0813F00103046825
:105140006468C4F3402414F00104012906D1012A43
:1051500004D1002B02D100F04EF976E0012B74D17E
:10516000012C72D100F081F96FE0016849694908AA
:1051700011F0010102685268C2F3402212F00102EC
:1051800003685B691B0913F001030468A469A408A0
:1051900014F00104012904D1012A02D100F0EDF933
:1051A00053E0012B04D1012A02D100F0F1F94CE0C7
:1051B000012C25D101684969C90911F00101026872
:1051C0005268C2F3802212F0010203685B699B08F7
:1051D00013F0010304686468C4F3402414F001046C
:1051E000012906D1012A04D1002B02D100F08DF94A
:1051F0002BE0012B29D1012C27D100F094F924E0D8
:1052000001684969890911F0010102685268C2F315
:10521000802212F0010203685B699B0813F001030E
:1052200004686468C4F3402414F00104012906D121
:10523000012A04D1002B02D100F083F905E0012BF3
:1052400003D1012C01D100F08AF910BD10B5040082
:1052500000200021002220684069000A10F00100AF
:1052600021684968C1F3002111F00101012811D121
:1052700001290FD1A06B50F00100A06320684069A4
:1052800030F48070216848612068006850F4004064
:105290002168086020684069400A10F00100216818
:1052A0004968C1F3002111F0010101280BD1012946
:1052B00009D1A06B50F00200A0632068406930F46F
:1052C00000702168486120684069800A10F0010080
:1052D00021684968C1F3002111F0010101281BD1A7
:1052E000012919D12068806910F00100618D94F8BE
:1052F00035200843002805D1122A03D1200000F0F0
:1053000066F909E0A06B50F00400A06320684069D2
:1053100030F480602168486120684069C00A10F05C
:10532000010021684968C1F3002111F00101012841
:105330000BD1012909D1A06B50F00800A0632068AF
:10534000406930F4006021684861A06B00280BD0F0
:10535000012084F835002068006830F4006021687E
:105360000860200000F007F810BD704770477047D4
:105370007047704770477047416A4A1C426209781B
:1053800002681161418D491E4185418D002905D179
:105390000168496831F4806100684160002070470D
:1053A00080B5418D002909D0416A4A1C42620978C2
:1053B00002681161418D491E41851AE00168496802
:1053C00031F4E061026851600168096851F40071CC
:1053D0000268116090F83510322905D1012180F85A
:1053E0003510FFF7C6FF04E0012180F83510FFF704
:1053F000BCFF002002BD80B50021418D042909D3E6
:10540000416A4A1C4262026812690A70418D491E53
:10541000418528E0022901D0032906D101684968A5
:1054200031F48061006841601DE00168496831F431
:10543000E06102685160416A4A1C42620268126976
:105440000A70418D491E418590F83510422905D1D9
:10545000012180F83510FFF78DFF04E0012180F86D
:105460003510FFF783FF002002BD80B5418D032971
:105470000FD10168096831F4806102681160416AE6
:105480004A1C4262026812690A70418D491E4185B8
:1054900039E0418D02292DD10168096851F400716C
:1054A000026811600168496831F440710268516016
:1054B000416A4A1C4262026812690A70418D491EA3
:1054C0004185416A4A1C4262026812690A70418D34
:1054D000491E418590F83510422905D1012180F8F7
:1054E0003510FFF747FF0EE0012180F83510FFF778
:1054F0003DFF08E0416A4A1C4262026812690A7074
:10550000418D491E4185002002BD418D002908D0F2
:10551000416A4A1C4262097802681161418D491E44
:10552000418500207047418D002908D0416A4A1CFE
:105530004262097802681161418D491E418500204F
:105540007047418D002908D0416A4A1C42620268B6
:1055500012690A70418D491E418500207047418DB6
:10556000002908D0416A4A1C4262026812690A7026
:10557000418D491E41850020704781B0016849690D
:1055800000910068806900900098002001B0704789
:1055900080B50168496831F4E061026851600168D2
:1055A000496900910168096851F0010102681160C0
:1055B000009100990168096831F480610268116006
:1055C000012180F83510FFF7D3FE002002BD80B521
:1055D0000168496831F4E061026851600168496915
:1055E00031F48061026851610168096831F48061B9
:1055F00002681160012180F83510FFF7B8FE002025
:1056000002BD020000205068134B98420AD2506835
:105610004000B1FBF0F00105090D042901D204207E
:1056200018E017E04FF400409368002B06D1526851
:1056300003235A43B1FBF2F1084307E052681923F0
:105640005A43B1FBF2F151F480410843010501D105
:105650000120FFE770470000A1860100024602F129
:1056600071000B0A037041700221D2F81821104713
:1056700070B504460D4616460FE035F8022B130AA6
:10568000401C01F8013BFA2801F8012B07D1A06E5C
:10569000D4F818214FF4FA719047A16E00203246D9
:1056A000561E002AE9D130B14100A06ED4F818216D
:1056B000BDE87040104770BDD0F8B810084789B2F7
:1056C000CCE72DE9F04F044687B0A068109EDDF8C6
:1056D0004480019077181298D0F8009040680590A7
:1056E00092460198A83002901D46019800F1280BBF
:1056F000DFF8A4050068007C10F0030005D0022844
:1057000014D05CD303285AD077E000F079F814BFA6
:1057100005994946019800F0C2F8761C082E04BF8E
:1057200000266D1CB8F10108EFD166E0DBF84400FB
:1057300004904FF000090024039700F061F80ED0A8
:1057400024B903970124DBF84400049009F101090E
:1057500004990598891C049121F8020D13E094B175
:10576000DDF808C003990198CDF800A07B1EDCF895
:1057700000C05246E047DBF8441001984A46002436
:10578000FFF776FFA1467F1C761C082E04BF00267B
:105790006D1CB8F10108D0D1B9F1000F2DD0CDF8B2
:1057A00000A05246029C03990198D4F800A07B1EE9
:1057B000D0470198DBF844104A4607B000E100F0FA
:1057C0001FF811D0029B5B6C524639462046984721
:1057D000DDF808C0DBF80010DCF848C081EA0003FF
:1057E000524639462046E0477F1C761C082E04BFEF
:1057F00000266D1CB8F10108E1D107B0BDE8F08FBB
:105800002878802121FA06F2104270472DE9F44FE2
:1058100084B000F085F837D000F0B8F802D0022844
:1058200011D031E0C5F103004000C022C0F10603F1
:1058300000F02BF86D1C042D04BF002518F801BFE3
:105840007F1EEFD120E000F091F8C5F10300400089
:10585000C021C0F1060200F069F802D000F06DF836
:1058600005E026B100F077F800F08AF8B246641C33
:105870006D1C042D04BF002518F801BF7F1EE4D164
:10588000BAF1000F00D08CE09DE0109922FA03F3EA
:1058900003EA0B0222FA00F351F82310029889B2AE
:1058A000DCE62DE9F44F84B000F03AF837D000F090
:1058B0006DF802D0022811D031E0C5F1010080005E
:1058C000F022C0F10403FFF7E0FF6D1C022D04BFBE
:1058D000002518F801BF7F1EEFD120E000F046F848
:1058E000C5F101008000F021C0F1040200F01EF8B3
:1058F00002D000F022F805E026B100F02CF800F00C
:105900003FF8B246641C6D1C022D04BF002518F838
:1059100001BF7F1EE4D1BAF1000F00D041E052E098
:1059200080680290984610980028704721FA02F388
:1059300003EA0B0232FA00F1704726B903940126FC
:105940000198D0F80090109850F8210029F8020B27
:105950000AF1010A70470498DDF804C0049A03991B
:105960000090631E0298DCF83CC0604702986C30DF
:1059700001904FF0000AD0F8009003940026704781
:105980000198016802985246002671E6C2480068F4
:105990000E9D007C98F800B00F9F6C1810F003006B
:1059A00070470498049A03990090631E019C029822
:1059B000D4F83C80C047019801680298524605B06F
:1059C000BDE8F04F54E605B0BDE8F08F2DE9FE4F7D
:1059D000806801900E460D98002893469A4651D053
:1059E000AD480068007C0C9D10F0030002D0022836
:1059F0000CD047E0012D45DB0D981AF8011B50F83B
:105A000021100198FFF74BFF6D1EF3E7019800F19D
:105A10006C080024D8F80090029600271AF8010BB1
:105A200058B11FB902960127D8F800900D9951F886
:105A3000200029F8020B641C11E087B1CDF800B0FA
:105A400002990198D8F83CC0731E5A46E047D8F82E
:105A5000001001982246FFF70BFE00270024761C59
:105A60006D1EDBD174B1CDF800B002990198D8F861
:105A70003CA0731E5A46D0470198D8F80010224621
:105A800003B09DE7BDE8F78F2DE9F14F84B0806842
:105A9000814F029088469946A9EB0800401C03906C
:105AA0001546029800F1A80A00F128043868007C25
:105AB0000E9EC0072BD400960298DAF80080C047EB
:105AC0000398246C711B491C01FB00F83868C06BFB
:105AD0000668350A4FF00109B8F1000F48E0388830
