:020000040800F2
:10000000E00400209529000831280008B1290008E3
:10001000B5290008B9290008BD2900080000000022
:10002000000000000000000000000000C1290008DE
:10003000C529000800000000C92900083928000867
:10004000CD290008D1290008D5290008D9290008A0
:10005000DD290008E1290008E5290008E929000850
:10006000ED290008F1290008F5290008F929000800
:10007000FD290008012A0008052A0008092A0008AD
:100080000D2A0008112A0008452800080000000079
:10009000000000000000000000000000152A000819
:1000A0000000000000000000000000000000000050
:1000B000192A00081D2A0008212A00084F280008D4
:1000C00059280008252A0008292A00082D2A000896
:1000D000312A000863280008352A0008392A000858
:1000E0003D2A0008412A000800000000000000002E
:1000F0000000000000000000000000000000000000
:10010000452A000800000000492A00084D2A00087E
:10011000512A0008552A0008592A00085D2A0008BB
:10012000612A0008652A0008692A00086D2A00086B
:1001300038B5040000252078C00740F11781DFF8AA
:10014000280C006810F00C0004280BD0DFF8180C05
:10015000006810F00C0008282BD1DFF80C0C0068A8
:10016000C00326D54FF48040B0FA80F050F0200054
:10017000C0B24009C0B2012803D1DFF8180C0068F2
:1001800006E04FF48040B0FA80F0DFF8340C0068ED
:100190004FF48041B1FA81F111F01F010200CA4011
:1001A000D00740F1E3806068002840F0DF80012044
:1001B000BBE3DFF8E00B006830F48030DFF8D41BDD
:1001C0000860DFF8D00B006830F48020DFF8C41B33
:1001D000086000F04CFE05004FF48040B0FA80F05B
:1001E00050F02000C0B24009C0B2012803D1DFF8AE
:1001F000A40B006806E04FF48040B0FA80F0DFF80E
:10020000C00B00684FF48041B1FA81F111F01F0179
:100210000200CA40D00708D500F029FE401B41F279
:1002200089318842D8D303207FE36068B0F5803FEE
:1002300008D1DFF8600B006850F48030DFF8541B01
:10024000086038E06068002810D1DFF8480B0068CB
:1002500030F48030DFF83C1B0860DFF8380B0068B2
:1002600030F48020DFF82C1B086024E06068B0F5D3
:10027000A02F10D1DFF81C0B006850F48020DFF8AD
:10028000141B0860DFF80C0B006850F48030DFF8B6
:10029000041B08600FE0DFF8FC0A006830F48030CF
:1002A000DFF8F01A0860DFF8EC0A006830F480200C
:1002B000DFF8E01A0860606800282BD000F0D7FD56
:1002C00005004FF48040B0FA80F050F02000C0B23A
:1002D0004009C0B2012803D1DFF8B80A006806E07F
:1002E0004FF48040B0FA80F0DFF8D40A00684FF491
:1002F0008041B1FA81F111F01F010200CA40D0071C
:1003000034D400F0B4FD401B41F289318842D8D387
:1003100003200AE300F0ABFD05004FF48040B0FA83
:1003200080F050F02000C0B24009C0B2012803D1D3
:10033000DFF8600A006806E04FF48040B0FA80F011
:10034000DFF87C0A00684FF48041B1FA81F111F0C6
:100350001F010200CA40D00708D500F088FD401BED
:1003600041F289318842D8D30320DEE22078800729
:1003700046D5DFF8F409006810F00C0F0BD0DFF859
:10038000E809006810F00C0008286AD1DFF8D809E5
:100390000068C00365D45FF08040B0FA80F050F090
:1003A0002000C0B24009C0B2012803D1DFF8E4093F
:1003B000006806E05FF08040B0FA80F0DFF8000AE5
:1003C00000685FF08041B1FA81F111F01F01020075
:1003D000CA40D00704D52069012801D00120A4E239
:1003E000DFF8B00900685FF0F851B1FA81F130F040
:1003F000F800626912FA01F10843DFF89819086001
:100400002078000740F1AB80A069002800F0D1807F
:1004100001205FF00041B1FA81F1DFF8C02942F814
:10042000210000F024FD05005FF08040B0FA80F06C
:100430005FF08040B0FA80F0DFF8840900685FF078
:100440008041B1FA81F111F01F010200CA40D007CA
:1004500000F1828000F00BFD401B6528E4D30320EF
:1004600063E22069002843D001205FF00041B1FA27
:1004700081F1DFF86C2942F8210000F0F8FC05005A
:100480005FF08040B0FA80F050F02000C0B2400928
:10049000C0B2012803D1DFF8FC08006806E05FF075
:1004A0008040B0FA80F0DFF8180900685FF0804102
:1004B000B1FA81F111F01F010200CA40D00706D441
:1004C00000F0D5FC401B6528DAD303202DE2DFF8CD
:1004D000C40800685FF0F851B1FA81F130F0F8001B
:1004E000626912FA01F10843DFF8A818086087E78B
:1004F00000205FF00041B1FA81F1DFF8E42842F812
:10050000210000F0B4FC05005FF08040B0FA80F0FC
:1005100050F02000C0B24009C0B2012803D1DFF87A
:100520007408006806E05FF08040B0FA80F0DFF801
:10053000900800685FF08041B1FA81F111F01F016D
:100540000200CA40D0077FF55BAF00F090FC401B73
:100550006528D9D30320E8E1012000F08BFC207846
:10056000400740F12981DFF87C08006850F0805096
:10057000DFF870180860DFF86C08006810F0805031
:1005800000900098DFF86008006850F48070DFF891
:100590005818086000F06BFC0500DFF84C08006894
:1005A000C0052ED400F063FC401B6528F5D3032062
:1005B000BBE100205FF00041B1FA81F1DFF81C28B7
:1005C00042F8210000F053FC05005FF08040B0FAD3
:1005D00080F05FF08040B0FA80F0DFF8E407006858
:1005E0005FF08041B1FA81F111F01F010200CA40B1
:1005F000D007B4D500F03BFC401B6528E5D30320B1
:1006000093E1DFF8E807006840084000DFF8DC17F6
:100610000860DFF8D807006830F00400DFF8CC1776
:10062000086000F024FC05005FF08040B0FA80F024
:100630005FF08040B0FA80F050F04000C0B2400956
:10064000C0B2022803D1DFF8A407006802E0DFF897
:10065000700700685FF08041B1FA81F111F01F016D
:100660000200CA40D00708D500F001FC401B41F24F
:1006700089318842D8D3032057E1E068012808D1A6
:10068000DFF86807006850F00100DFF860170860C5
:1006900037E0E068002810D1DFF850070068400814
:1006A0004000DFF848170860DFF84007006830F0C6
:1006B0000400DFF83817086023E0E068052810D14F
:1006C000DFF82807006850F00400DFF82017086002
:1006D000DFF81807006850F00100DFF81017086015
:1006E0000FE0DFF80807006840084000DFF8FC165C
:1006F0000860DFF8F806006830F00400DFF8EC1658
:100700000860E06800282BD000F0B1FB05005FF026
:100710008040B0FA80F05FF08040B0FA80F050F096
:100720004000C0B24009C0B2022803D1DFF8BC06C5
:10073000006802E0DFF8880600685FF08041B1FAE7
:1007400081F111F01F010200CA40D00734D400F03B
:100750008EFB401B41F289318842D8D30320E4E06C
:1007600000F085FB05005FF08040B0FA80F05FF09C
:100770008040B0FA80F050F04000C0B24009C0B2F2
:10078000022803D1DFF86406006802E0DFF83006D3
:1007900000685FF08041B1FA81F111F01F010200A1
:1007A000CA40D00708D500F062FB401B41F28931F6
:1007B0008842D8D30320B8E0E069002800F0B48074
:1007C000DFF8A405006810F00C00082800F0AA80EB
:1007D000E069022877D100208021B1FA81F1DFF8A9
:1007E000002642F8210000F042FB05004020B0FA4C
:1007F00080F050F02000C0B24009C0B2012803D1FF
:10080000DFF89005006805E04020B0FA80F0DFF8DE
:10081000B00500684021B1FA81F111F01F0102001A
:10082000CA40D00706D500F022FB401B6528DDD367
:1008300003207AE0206AB0F5803F09D1DFF828056F
:10084000006830F40030A1680843DFF81C15086028
:10085000DFF81405006830F47410216A0843616AF7
:100860000843DFF80415086001208021B1FA81F106
:10087000DFF86C2542F8210000F0F9FA050040206D
:10088000B0FA80F050F02000C0B24009C0B2012898
:1008900003D1DFF80005006805E04020B0FA80F0E1
:1008A000DFF81C0500684021B1FA81F111F01F0149
:1008B0000200CA40D00737D400F0D9FA401B65289F
:1008C000DDD3032031E000208021B1FA81F1DFF88F
:1008D000102542F8210000F0CAFA05004020B0FAC5
:1008E00080F050F02000C0B24009C0B2012803D10E
:1008F000DFF8A004006805E04020B0FA80F0DFF8DF
:10090000C00400684021B1FA81F111F01F0102001A
:10091000CA40D00708D500F0AAFA401B6528DDD3ED
:10092000032002E0012000E0002032BD70B5040089
:100930000D000026DFF8B804006810F00700A84298
:1009400080F0D180DFF8A8040068C008C000284308
:10095000DFF89C140860DFF89804006810F00700C6
:10096000A84201D001209EE12078800709D5DFF858
:100970008404006830F0F000A1680843DFF87414C4
:1009800008602078C00740F173816068012821D198
:100990004FF48040B0FA80F050F02000C0B240091F
:1009A000C0B2012803D1DFF8EC03006806E04FF481
:1009B0008040B0FA80F0DFF8080400684FF480410E
:1009C000B1FA81F111F01F010200CA40D00745D4ED
:1009D000012068E1606802281ED14020B0FA80F052
:1009E00050F02000C0B24009C0B2012803D1DFF8A6
:1009F000A403006805E04020B0FA80F0DFF8C003EF
:100A000000684021B1FA81F111F01F010200CA40D3
:100A1000D00723D4012046E15FF08040B0FA80F097
:100A200050F02000C0B24009C0B2012803D1DFF865
:100A30006403006806E05FF08040B0FA80F0DFF801
:100A4000800300685FF08041B1FA81F111F01F016D
:100A50000200CA40D00701D4012024E1DFF894034A
:100A600000688008800061680843DFF88813086028
:100A700000F0FDF906006068012810D1DFF874036A
:100A8000006810F00C00042800F0F28000F0EFF98C
:100A9000801B41F289318842F0D3032003E1606872
:100AA000022810D1DFF84C03006810F00C00082871
:100AB00000F0DE8000F0DBF9801B41F289318842D2
:100AC000F0D30320EFE0DFF82C03006810F00C0FE8
:100AD00000F0CE8000F0CBF9801B41F289318842D2
:100AE000F1D30320DFE02078800709D5DFF8040385
:100AF000006830F0F000A1680843DFF8F8120860E1
:100B00002078C00740F1A5806068012820D14FF40B
:100B10008040B0FA80F050F02000C0B24009C0B26E
:100B2000012802D19B48006806E04FF48040B0FAEB
:100B300080F0DFF88C0200684FF48041B1FA81F157
:100B400011F01F010200CA40D00742D40120AAE0E0
:100B5000606802281DD14020B0FA80F050F02000DB
:100B6000C0B24009C0B2012802D18A48006805E03D
:100B70004020B0FA80F0DFF8480200684021B1FA66
:100B800081F111F01F010200CA40D00721D40120D9
:100B900089E05FF08040B0FA80F050F02000C0B2F1
:100BA0004009C0B2012802D17A48006805E05FF030
:100BB0008040B0FA80F0824800685FF08041B1FA6E
:100BC00081F111F01F010200CA40D00701D40120B9
:100BD00069E0DFF82002006880088000616808434F
:100BE000DFF81012086000F042F906006068012882
:100BF0000FD1DFF80002006810F00C00042828D0A4
:100C000000F035F9801B41F289318842F1D303208D
:100C100049E0606802280ED17648006810F00C00A8
:100C2000082816D000F023F9801B41F28931884250
:100C3000F2D3032037E06F48006810F00C0F08D0A3
:100C400000F015F9801B41F289318842F3D303206B
:100C500029E067480068C008C0002843644908606C
:100C60006348006810F00700A84201D001201AE094
:100C70002078400707D55F48006830F4E060E168FD
:100C800008435C4908602078000708D55948006887
:100C900030F46050216950EAC100564908600020D4
:100CA00000F0CDF8002070BD01204FF48051B1FA62
:100CB00081F14B4A42F82100704710B586B001A877
:100CC0004D49102200F0E8F84C480088ADF80000CB
:100CD000002000200020002100202348006810F0A0
:100CE0000C01042902D0082902D022E0444821E066
:100CF00001A910F470124FF47053B3FA83F3140087
:100D0000DC40615CC00310D51748006800AA10F4ED
:100D100000304FF48043B3FA83F30400DC40A05C5E
:100D2000374AB2FBF0F0484302E0364800FB01F0DE
:100D300000E0334806B010BD10B5FFF7BEFF0A490A
:100D400009685FF07062B2FA82F22F4B11F0F00185
:100D50000C00D440E15C0200CA402C4802602B48E1
:100D6000006810BD000000000410024010B5FFF73D
:100D7000E3FF01001F4800685FF46002B2FA82F2EC
:100D8000214B10F4E0600400D440E25C0800D04045
:100D900010BD00000010024010B5FFF7CDFF0100AC
:100DA000144800685FF4E012B2FA82F2164B10F4B5
:100DB00060500400D440E25C0800D04010BD000048
:100DC0002410024080B512480068000604D500F0E7
:100DD00023F880200F49087001BD000080044242C2
:100DE000000042421C1002400070004020100240EF
:100DF0000020024004100240742900081A0E000866
:100E000000127A0000093D0084290008000000203B
:100E1000081002400A1002407047010280B51C48C9
:100E2000006850F010001A490860032000F0C4F870
:100E3000002000F004F800F003F9002002BD10B516
:100E40000400FFF779FF4FF47A71B0FBF1F000F086
:100E5000CDF8002221005FF0FF3000F0B1F8002053
:100E600010BD0C480068401C0A49086070470948DA
:100E70000068704711B581B00024FFF7F8FF040047
:100E8000FFF7F5FF001B01998842F9D313BD00005D
:100E900000200240DC000020103A07D330B4B1E853
:100EA0003810103AA0E83810F9D230BC530724BFEC
:100EB000B1E80810A0E8081044BF51F8043B40F81E
:100EC000043BD20724BF31F8022B20F8022B44BF89
:100ED0000B7803707047083A07D3B1E80810083A56
:100EE00040F8043B40F804CBF7D25307E4E7000096
:100EF00010F00701474800684FF6FF021040464ACD
:100F000052EA01210843434908607047414800689C
:100F1000C0F302207047012110F01F0291403F4AA8
:100F200040B2400942F82010704740B2002808D56E
:100F300009013B4A40B210F00F00801800F8041C71
:100F400003E00901374A40B28154704710B410F0F1
:100F50000700D0F10703052B01D3042301E0D0F1F2
:100F60000703041D072C01D2002000E0C01E01244D
:100F700014FA03F35B1E19408140012313FA00F0B9
:100F8000401E1040084310BC704780B5411EB1F1AF
:100F9000807F01D301200EE0401E234908600F210D
:100FA0005FF0FF30FFF7C1FF0020204908600720F5
:100FB0001F490860002002BD80B5FFF799FF01BD01
:100FC00070B504000D0016000020FFF79FFF3200EF
:100FD0002900FFF7BBFF0100200040B2FFF7A5FF8B
:100FE00070BD80B540B2FFF796FF01BD80B5FFF739
:100FF000CCFF02BD042806D10D48006850F0040063
:101000000B49086005E00A48006830F00400084910
:10101000086070470CED00E00000FA0500E100E018
:1010200018ED00E000E400E014E000E018E000E06B
:1010300010E000E080B500F001F801BD704700004D
:1010400080B56848006850F001006649086065484E
:10105000006810F00100009000980320FFF7ACFF3B
:10106000002200215FF0FF30FFF7AAFF5E48006812
:1010700030F0E06050F080605B49086001BD00B571
:1010800085B000685949884223D15648006850F419
:101090000070544908605348006810F400700090D4
:1010A0000098302001900320029001A9504800F0E0
:1010B000B1F8032001900320029001A94D4800F0EF
:1010C000A9F8002200211220FFF77AFF1220FFF773
:1010D00088FF05B000BD81B00068474988420BD148
:1010E0004648006850F040004449086043480068A2
:1010F00010F040000090009801B0704700B585B036
:1011000000683F49884225D1C020019012200290FA
:101110000320049001A9374800F07CF839480068A2
:1011200050F40010374908603648006810F4001089
:1011300000900098002200211F20FFF741FF1F2090
:10114000FFF74FFF002200212020FFF739FF20206A
:10115000FFF747FF05B000BD704700B585B00068D8
:101160002949884229D11F48006850F480401D4910
:1011700008601C48006810F48040009000984FF40C
:1011800000700190022002900320049001A91F48E2
:1011900000F040F84FF480600190002002900020A1
:1011A000039001A9194800F035F8002200212520FC
:1011B000FFF706FF2520FFF714FF05B000BD81B043
:1011C0000068134988420BD10E48006850F4006053
:1011D0000C4908600B48006810F40060009000980B
:1011E00001B0704718100240040001400024014083
:1011F00000100140000C0140003002401410024079
:10120000005400401C10024000380140000801401A
:10121000002C0040F8B40025002400250022002600
:10122000002308E0DFF8C4512D6835EA0404DFF834
:10123000BC512C605B1C102B80F0D080012414FA70
:1012400003F50C682C40AC42F4D14E68002E27D038
:10125000012E1AD0022E1DD0032E2FD0112E16D003
:10126000122E1AD0624FBE421AD0624FBE4217D021
:10127000614FBE4214D0614FBE4211D0604FBE429A
:101280000ED0604FBE420BD01AE0CA6818E0CA68A0
:10129000121D15E0CA68083212E0CA680C320FE06D
:1012A0008A68002A01D1042207E08A68012A02D153
:1012B0000822056101E00822456101E00022FFE704
:1012C000FF2C01D8050000E0051DFF2C01D89E0071
:1012D00002E0B3F10806B6002F685FF00F0C1CFAAD
:1012E00006FC37EA0C0712FA06F63E432E604D68FC
:1012F000ED009FD5444D2D6855F00105424E3560F7
:10130000414D2D6815F001050095009D3F4D9E084B
:1013100055F826500F2613F00307FFB2BF00BE405A
:10132000B5433B4EB04201D1002619E0394EB042E0
:1013300001D1012614E0384EB04201D102260FE05F
:10134000364EB04201D103260AE0354EB04201D1FB
:10135000042605E0334EB04201D1052600E0062602
:1013600013F00307FFB2BF00BE403543274E9F086E
:1013700046F827504D68ED0305D52B4D2D682543C4
:10138000294E356004E0284D2D68A543264E356072
:101390004D68AD0305D5254D2D682543234E356099
:1013A00004E0224D2D68A543204E35604D68ED02C6
:1013B00005D51F4D2D6825431D4E356004E01C4D9D
:1013C0002D68A5431A4E35604D68AD027FF52AAFF2
:1013D000064D2D682C43054D2C602BE7F1BC704762
:1013E000C26889B25140C160704700000C040140DE
:1013F0000000111000001210000021100000221047
:1014000000003110000032101810024008000140A6
:1014100000080140000C0140001001400014014090
:1014200000180140001C0140000401400404014078
:101430000804014010B5040000210020002C01D157
:1014400001204CE094F83500002805D1002084F8F4
:1014500034002000FFF752FE022084F83500206897
:1014600000684008400021680860FFF77FFCDFF853
:101470007010B0FBF1F1226851606268DFF86430EF
:101480009A4201D2491C07E04FF4967251434FF43F
:101490007A72B1FBF2F1491C22681162010020004E
:1014A00000F0C9FA2168C861E069216A084321682F
:1014B00008602069E1680843216888606069A16963
:1014C00008432168C8602068006850F00100216866
:1014D00008600020A063012084F83500002010BDC2
:1014E00040420F00A186010010B500210022002318
:1014F000002401688969C90751D5016889694907CC
:1015000027D501684969C90911F0010102685268CB
:10151000C2F3802212F0010203685B699B0813F09A
:10152000010304686468C4F3402414F00104012931
:1015300006D1012A04D1002B02D100F037F99EE038
:10154000012B40F09C80012C40F0998000F042F982
:1015500095E001684969890911F001010268526842
:10156000C2F3802212F0010203685B699B0813F04A
:10157000010304686468C4F3402414F001040129E1
:1015800006D1012A04D1002B02D100F04EF976E0F9
:10159000012B74D1012C72D100F081F96FE0016848
:1015A0004969490811F0010102685268C2F34022FA
:1015B00012F0010203685B691B0913F00103046860
:1015C000A469A40814F00104012904D1012A02D15C
:1015D00000F0EDF953E0012B04D1012A02D100F013
:1015E000F1F94CE0012C25D101684969C90911F0D4
:1015F000010102685268C2F3802212F001020368FE
:101600005B699B0813F0010304686468C4F3402419
:1016100014F00104012906D1012A04D1002B02D1C2
:1016200000F08DF92BE0012B29D1012C27D100F0FE
:1016300094F924E001684969890911F001010268FF
:101640005268C2F3802212F0010203685B699B08B2
:1016500013F0010304686468C4F3402414F0010427
:10166000012906D1012A04D1002B02D100F083F90F
:1016700005E0012B03D1012C01D100F08AF910BD46
:1016800010B5040000200021002220684069000AF3
:1016900010F0010021684968C1F3002111F0010137
:1016A000012811D101290FD1A06B50F00100A063D6
:1016B0002068406930F480702168486120680068C3
:1016C00050F400402168086020684069400A10F02A
:1016D000010021684968C1F3002111F001010128CE
:1016E0000BD1012909D1A06B50F00200A063206842
:1016F000406930F400702168486120684069800AC0
:1017000010F0010021684968C1F3002111F00101C6
:1017100001281BD1012919D12068806910F001002E
:10172000618D94F835200843002805D1122A03D191
:10173000200000F066F909E0A06B50F00400A063FF
:101740002068406930F48060216848612068406901
:10175000C00A10F0010021684968C1F3002111F0AE
:10176000010101280BD1012909D1A06B50F008001B
:10177000A0632068406930F4006021684861A06B74
:1017800000280BD0012084F835002068006830F470
:10179000006021680860200000F007F810BD704765
:1017A000704770477047704770477047416A4A1CDE
:1017B0004262097802681161418D491E4185418D5F
:1017C000002905D10168496831F4806100684160F1
:1017D0000020704780B5418D002909D0416A4A1C1C
:1017E0004262097802681161418D491E41851AE003
:1017F0000168496831F4E061026851600168096874
:1018000051F400710268116090F83510322905D149
:10181000012180F83510FFF7C6FF04E0012180F8B0
:101820003510FFF7BCFF002002BD80B50021418DBF
:10183000042909D3416A4A1C4262026812690A708B
:10184000418D491E418528E0022901D0032906D196
:101850000168496831F48061006841601DE00168F9
:10186000496831F4E06102685160416A4A1C426291
:10187000026812690A70418D491E418590F8351041
:10188000422905D1012180F83510FFF78DFF04E0D2
:10189000012180F83510FFF783FF002002BD80B5DD
:1018A000418D03290FD10168096831F48061026814
:1018B0001160416A4A1C4262026812690A70418DD5
:1018C000491E418539E0418D02292DD10168096801
:1018D00051F40071026811600168496831F4407187
:1018E00002685160416A4A1C4262026812690A70C9
:1018F000418D491E4185416A4A1C42620268126953
:101900000A70418D491E418590F83510422905D154
:10191000012180F83510FFF747FF0EE0012180F824
:101920003510FFF73DFF08E0416A4A1C4262026839
:1019300012690A70418D491E4185002002BD418D0A
:10194000002908D0416A4A1C426209780268116184
:10195000418D491E418500207047418D002908D0E6
:10196000416A4A1C4262097802681161418D491E30
:10197000418500207047418D002908D0416A4A1CEA
:101980004262026812690A70418D491E4185002039
:101990007047418D002908D0416A4A1C42620268A2
:1019A00012690A70418D491E41850020704781B03F
:1019B00001684969009100688069009000980020E2
:1019C00001B0704780B50168496831F4E061026890
:1019D00051600168496900910168096851F001018D
:1019E00002681160009100990168096831F4806112
:1019F00002681160012180F83510FFF7D3FE002046
:101A000002BD80B50168496831F4E0610268516047
:101A10000168496931F480610268516101680968AF
:101A200031F4806102681160012180F83510FFF700
:101A3000B8FE002002BD020000205068134B9842FF
:101A40000AD250684000B1FBF0F00105090D0429ED
:101A500001D2042018E017E04FF400409368002BF7
:101A600006D1526803235A43B1FBF2F1084307E061
:101A7000526819235A43B1FBF2F151F480410843F3
:101A8000010501D10120FFE770470000A186010098
:101A9000F8B504000020002600250027002C01D105
:101AA000012091E0A0680028A06A002807D100204A
:101AB000E062002084F824002000FFF7E0FA200014
:101AC00000F0DEF9A16AC90678D4C0B2002875D149
:101AD000A16A31F4885151F00201A1625FF08041A6
:101AE000B1FA81F16268E3691A43E36813FA01F11C
:101AF00011430D43A168B1F5807F02D0A16801298F
:101B000002D14FF4807100E000210E436169012988
:101B100016D1E16800290BD15FF4E021B1FA81F11F
:101B2000A269521E12FA01F151F400610E4307E05E
:101B3000A16A51F02001A162E16A51F00101E16264
:101B40002168496831F46941314322685160216854
:101B50008968DFF818231140294322689160A16841
:101B6000B1F5807F07D14FF47061B1FA81F122693C
:101B7000521E12FA01F72168C96A31F47001394323
:101B80002268D16221688968DFF8E4221140A94205
:101B900008D10021E162A16A31F0020151F0010196
:101BA000A16210E0A06A30F0020050F01000A062C4
:101BB000E06A50F00100E062012004E0A06A50F009
:101BC0001000A0620120C0B2F2BD10B50400206870
:101BD000406880062CD520680068800728D5A06A58
:101BE000C00603D4A06A50F40070A0622068806828
:101BF00010F46020B0F5602F13D1E068002810D1F8
:101C00002068406830F0200021684860A06A30F405
:101C10008070A062A06AC00403D4A06A50F00100E2
:101C2000A062200000F054F87FF0120021680860E4
:101C300020684068000637D520680068400733D523
:101C4000A06AC00603D4A06A50F40050A0622068C5
:101C5000806810F4E040B0F5E04F0DD02068406897
:101C600040051AD42068806810F46020B0F5602F19
:101C700013D1E068002810D12068406830F080005F
:101C800021684860A06A30F48050A062A06AC00554
:101C900003D4A06A50F00100A062200000F016F901
:101CA0007FF00C00216808602068406840060ED56F
:101CB00020680068C0070AD5A06A50F48030A0628E
:101CC000200000F006F87FF001002168086010BDD8
:101CD00070477047F8B40A0000210023009390F881
:101CE0002430012B01D10220BDE0012380F82430F3
:101CF0005368072B1AD203685C6B5FF0F863B3FA82
:101D000083F55FF0F863B3FA83F31F2657687F1EED
:101D10007D4316FA05F5AC4315685668761E734385
:101D200015FA03F323430468636337E053680D2B0C
:101D30001AD203681C6B5FF0F863B3FA83F55FF0A7
:101D4000F863B3FA83F31F265768FF1F7D4316FA23
:101D500005F5AC4315685668F61F734315FA03F38F
:101D600023430468236319E00368DC6A5FF0F863C7
:101D7000B3FA83F55FF0F863B3FA83F31F2657686D
:101D80000D3F7D4316FA05F5AC43156856680D3EC8
:101D9000734315FA03F323430468E36213680A2BC1
:101DA0001AD30368DC685FF0E053B3FA83F55FF0A1
:101DB000E053B3FA83F3072617680A3F7D4316FA08
:101DC00005F5AC43956816680A3E734315FA03F3AC
:101DD00023430468E36016E003681B695FF0E05486
:101DE000B4FA84F45FF0E055B5FA85F50726176874
:101DF0007C4316FA04F4A343946816687543AC4018
:101E00002343046823611368102B02D01368112B3D
:101E100024D10368184CA3421BD103689B681B02A2
:101E20001CD403689B6853F400030468A360126821
:101E3000102A13D10F4A1268104BB2FBF3F20A2397
:101E40005A430092009A002A08D0009A521E00922B
:101E5000F8E7816A51F0200181620121002280F8B7
:101E600024200800C0B2F2BC70470000FDF7E1FF7B
:101E7000FE0E1FFF000000200024014040420F0022
:101E800038B50400002520688068C0071BD520688D
:101E900080684008400021688860FEF7E8FF050080
:101EA00020688068C0070ED5FEF7E1FF401B0328BD
:101EB000F6D3A06A50F01000A062E06A50F0010072
:101EC000E062012000E0002032BD00007047000009
:101ED00010B50400002C01D1012030E0A0690028D9
:101EE000FFD194F83900002805D1002084F838008B
:101EF0002000FFF732F9022084F839002068C0681A
:101F000030F400502168C860200000F064F92068B7
:101F1000006930F49040216808612068406930F021
:101F20002A00216848612068C06850F40050216888
:101F3000C8600020E063012084F83900002010BD53
:101F400010B582B00400002100202068006810F065
:101F500001012068C06810F4807000290CD00028AE
:101F60000AD02068006800902068406800900098BF
:101F7000E06B50F00100E06320680068400810F05A
:101F800001012068406910F0010000290CD00028F0
:101F90000AD0216809680091216849680091009978
:101FA000E16B51F00401E16321680968890811F0CF
:101FB000010100290CD000280AD02168096800918D
:101FC0002168496800910099E16B51F00201E163D9
:101FD00021680968C90811F0010100290CD0002806
:101FE0000AD020680068009020684068009000983F
:101FF000E06B50F00800E06320680068400910F0D2
:1020000001012068C06810F02000002904D00028D9
:1020100002D0200000F081F820680068C00910F0AC
:1020200001012068C06810F08000002904D0002859
:1020300002D0200000F01DF820680068800910F030
:1020400001012068C06810F04000002904D0002879
:1020500002D0200000F045F8E06B002805D00120F8
:1020600084F83900200000F003F813BD7047704772
:102070007047002190F83910122901D032292ED151
:102080008168B1F5805F10D1016A0988C905C90D61
:10209000026851600169002903D1016A891C01624B
:1020A00009E0016A491C016205E0016A4A1C0262FA
:1020B000097802685160C18C491EC184C18C002915
:1020C0000BD10168C96831F080010268D1600168F4
:1020D000C96851F040010068C160002000E00220A2
:1020E000704780B50168C96831F040010268D1606D
:1020F00090F83910322903D1222180F8391008E0F4
:10210000016849694908490002685161012180F864
:102110003910FFF7ABFF002002BD80B5002190F819
:102120003910222901D0322953D18168B1F5805F5D
:1021300014D1816A0269002A08D102685268D20566
:10214000D20D0A80816A891C816219E00268526896
:10215000D2B20A80816A491C816211E001690029BA
:1021600006D1816A4A1C8262026852680A7007E0DE
:10217000816A4A1C82620268526812F07F020A7009
:10218000C18D491EC185C18D002920D10168C96852
:1021900031F020010268D16090F83910322903D162
:1021A000122180F839100EE00168C96831F480719D
:1021B0000268D160016849694908490002685161B3
:1021C000012180F83910FFF752FF002002E00020C3
:1021D00000E0022002BD70B5040000202068006904
:1021E00030F44050E168084321680861A068216923
:1021F0000843616908432168C9683A4A11400843A5
:102200002168C8602068406930F44070A1690843C3
:102210002168486120683449884230D1FEF7BCFD0E
:102220000600FEF7B9FD0500FEF7B6FD192101FB1A
:1022300006F162689200B1FBF2F16422B1FBF2F1A7
:10224000192202FB05F263689B00B2FBF3F219232B
:10225000584363689B00B0FBF3F06423B0FBF3F0DA
:10226000642303FB1020000132306422B0FBF2F043
:1022700010F00F0050EA0110216888602FE0FEF78F
:1022800075FD0600FEF772FD0500FEF76FFD1921D2
:1022900001FB06F162689200B1FBF2F16422B1FB2E
:1022A000F2F1192202FB05F263689B00B2FBF3F224
:1022B0001923584363689B00B0FBF3F06423B0FB21
:1022C000F3F0642303FB1020000132306422B0FBE2
:1022D000F2F010F00F0050EA01102168886070BD24
:1022E00000000000F3E9FFFF0038014080B5FEF771
:1022F00095FD00F018F800F0DEF800F050F800F05E
:1023000073F800F079F800F098F800F0A5F800F004
:10231000C1F84FF400519C48FFF762F84FF47A700F
:10232000FEF7A8FDF5E700B593B0092008905FF42B
:10233000803009905FF400300A9001200E90022056
:102340000F905FF4803010905FF4E010119008A8B7
:10235000FDF7EEFE0120039002200490002005907E
:102360000020069000200790012103A8FEF7DEFA66
:10237000022000904FF48040029000A800F026F95F
:10238000FEF792FCFEF7D8FC4FF47A71B0FBF1F047
:10239000FEF72CFE0420FEF72DFE13B000BDE0B5C5
:1023A0007A487B4908600020794988600020784994
:1023B000C8600020764948615FF460207449C861B4
:1023C0000020734948600120714908617048FFF797
:1023D0005FFB09200090012001900020029000A9DD
:1023E0006B48FFF777FC07BD80B56A486A4908600B
:1023F000694800F07FF901BD80B568486849086008
:102400006848674948600020654988600020644941
:10241000C8604FF48040624908610020604948610B
:1024200000205F49886100205D49C86100205C4947
:1024300008625B48FEF7FEFF01BD80B55A485B4964
:10244000086000205949486040F6FF70574988608D
:10245000564800F061F901BD80B5554855490860FE
:102460004FF496405349486000205249886000204C
:102470005049C86000204F4908610C204D4948610F
:1024800000204C49886100204A49C8614948FFF74B
:102490001FFD01BD80B548484849086000204749F4
:1024A000486040204549886040204449C86043480E
:1024B00000F064F901BD00B585B04148006850F0F6
:1024C00010003F4908603E48006810F0100000907E
:1024D00000983B48006850F02000394908603848AF
:1024E000006810F02000009000983548006850F017
:1024F0000400334908603248006810F0040000907E
:1025000000982F48006850F008002D4908602C48BA
:10251000006810F00800009000984FF400500190FF
:10252000012002900220049001A91748FEF772FED4
:102530000F200190012002900320049001A912486D
:10254000FEF768FEFF200190012002900320049016
:1025500001A91C48FEF75EFE0420019001200290B4
:102560000320049001A91848FEF754FE4FF40060C0
:102570000190012002900220049001A91148FEF769
:1025800049FE05B000BD00000010014000240140DC
:102590008000002000300240D400002000540040A1
:1025A00044000020A086010000300040C40000204C
:1025B0000038014004000020002C0040B000002042
:1025C0001810024000080140000C014038B504001A
:1025D000002500202078C00772D54048006850F0E0
:1025E00080503E4908603D48006810F080500090DF
:1025F00000983B48006850F4807039490860FEF745
:1026000036FC050036480068C00506D4FEF72FFCEE
:10261000401B6528F6D303205EE03248006810F4C2
:102620004070616811F44071884249D02D480068BB
:1026300030F4407001214FF40042B2FA82F22A4B8A
:1026400043F8221000214FF40042B2FA82F2264BE6
:1026500043F8221023490860800729D5FEF707FCBC
:1026600005005FF08040B0FA80F05FF08040B0FA83
:1026700080F050F04000C0B24009C0B2022802D140
:102680001848006801E0194800685FF08041B1FA1D
:1026900081F111F01F010200CA40D00708D4FEF7F3
:1026A000E6FB401B41F289318842DAD3032013E074
:1026B0000C48006830F440706168084309490860BC
:1026C0002078800707D50A48006830F44040A168A8
:1026D000084307490860002032BD00001C1002407A
:1026E00000700040201002400004424224100240CA
:1026F0000410024010B50400002C01D101200AE0B2
:102700006079002804D1002020712000FEF7E3FC4E
:1027100001206071002010BD10B50400002C01D113
:1027200001202AE02068C068C00705D52068C0687D
:10273000800701D5012020E0607B002804D1002023
:1027400020732000FEF708FD0220607345F255500B
:102750002168086020684068C008C00061680843BC
:102760002168486020688068000B0003A168084366
:102770002168886001206073002010BD10B504003E
:10278000002C01D101201EE0607C002804D1002033
:1027900020742000FEF713FD02206074206840685A
:1027A000400A4002A16862681143084321684860FA
:1027B00020680068C009C001E1680843216808601A
:1027C00001206074002010BD1348006850F0010023
:1027D0001149086011480068114908400F49086014
:1027E0000D4800680F4908400B4908600A48006816
:1027F00030F48020084908600848006830F4FE0082
:10280000064908605FF41F00074908605FF0006038
:1028100006490860704700000010024004100240A2
:102820000000FFF8FFFFF6FE0810024008ED00E090
:1028300080B5FEF7C7FA01BD80B5FEF712FBFEF7C3
:10284000F9FB01BD80B50948FFF7BFF901BD80B5AF
:102850000748FEF749FE01BD80B50548FEF710FFA9
:1028600001BD80B50348FFF76BFB01BD8000002070
:10287000440000200400002019E050F8041BCB079E
:1028800044BFA9F101035918121F0023042A41F87B
:10289000043BF9D25FEA827C0B4604D54FF0000C72
:1028A000A1F800C09B1CD10744BF0021197050F84B
:1028B000042B002AE1D1704710B450F8041B79B101
:1028C0000268436812180830DC0744BFA9F101040C
:1028D000E31852F8044B43F8044B091FF9D1ECE715
:1028E00010BC704710B5074979441831064C7C4438
:1028F000163404E00A68081D511888470146A142B1
:10290000F8D110BD08000000280000006DFFFFFF97
:10291000DC00000004000020000000009DFFFFFF1D
:10292000040000004C010000000000200000000036
:1029300000F00BF8002801D0FFF7D4FF0020C046BC
:10294000C046FFF7D3FC00F002F80120704700F00A
:1029500001B800000746384600F002F8FBE7000027
:1029600080B5C046C046024A11001820ABBEFBE746
:102970002600020002030405060708090A0B0C0DD5
:102980000E0F1010000000000102030401020304F6
:10299000060708090148804701480047C927000881
:1029A000A5290008C046C046C046C046FFF7C0FF84
:1029B000FFF7FEBFFFF7FEBFFFF7FEBFFFF7FEBF4B
:1029C000FFF7FEBFFFF7FEBFFFF7FEBFFFF7FEBF3B
:1029D000FFF7FEBFFFF7FEBFFFF7FEBFFFF7FEBF2B
:1029E000FFF7FEBFFFF7FEBFFFF7FEBFFFF7FEBF1B
:1029F000FFF7FEBFFFF7FEBFFFF7FEBFFFF7FEBF0B
:102A0000FFF7FEBFFFF7FEBFFFF7FEBFFFF7FEBFFA
:102A1000FFF7FEBFFFF7FEBFFFF7FEBFFFF7FEBFEA
:102A2000FFF7FEBFFFF7FEBFFFF7FEBFFFF7FEBFDA
:102A3000FFF7FEBFFFF7FEBFFFF7FEBFFFF7FEBFCA
:102A4000FFF7FEBFFFF7FEBFFFF7FEBFFFF7FEBFBA
:102A5000FFF7FEBFFFF7FEBFFFF7FEBFFFF7FEBFAA
:102A6000FFF7FEBFFFF7FEBFFFF7FEBFFFF7FEBF9A
:042A700000A24A0472
:04000005080029A521
:00000001FF
