:020000040800F2
:10000000E00400207D1B0008891A0008991B0008E5
:100010009D1B0008A11B0008A51B00080000000094
:10002000000000000000000000000000A91B000804
:10003000AD1B000800000000B11B00088D1A00086D
:10004000B51B0008B91B0008BD1B0008C11B000838
:10005000C51B0008C91B0008CD1B0008D11B0008E8
:10006000D51B0008D91B0008DD1B0008E11B000898
:10007000E51B0008E91B0008ED1B0008F11B000848
:10008000F51B0008F91B00089B1A0008000000007F
:10009000000000000000000000000000FD1B000840
:1000A0000000000000000000000000000000000050
:1000B000011C0008051C0008091C0008A11A000802
:1000C000A71A00080D1C0008111C0008151C0008C8
:1000D000191C0008AD1A00081D1C0008211C00088E
:1000E000251C0008291C000800000000000000007A
:1000F0000000000000000000000000000000000000
:100100002D1C000800000000311C0008351C0008F0
:10011000391C00083D1C0008411C0008451C000853
:10012000491C00084D1C0008511C0008551C000803
:100130002DE9F843044641F289382078DFF8486514
:10014000C00750D500F028FA05D000F02AFA0BD1EC
:100150007068C00308D500F05CF9002843D06068DF
:10016000002840D1012047E1306800F056F93060A6
:1001700000F0DBFA054600F04CF928B100F0D5FAA2
:10018000401B4045F7D334E16068B0F5803F09D0AB
:1001900008B930680AE0B0F5A02F306806D140F405
:1001A00080203060306840F4803001E000F035F9A4
:1001B0003060606858B100F0B8FA054600F029F9DF
:1001C00088B900F0B2FA401B4045F7D311E100F0C6
:1001D000ACFA054600F01DF928B100F0A6FA401B64
:1001E0004045F7D305E12078DFF8A074800716D5E5
:1001F000706810F00C0F05D000F0D3F926D17068AC
:10020000C00323D400F010F91CBF20690128A9D134
:100210003068616920F0F80040EAC1003060207861
:10022000000732D5A169DFF8680400294ED001210A
:10023000016000F07AFA0546706AC0F3400010BB16
:1002400000F073FA401B6528F6D3D2E0206968B14C
:100250000120386000F069FA054600F0E5F8D7D1D2
:1002600000F063FA401B6528F7D3C2E0386000F065
:100270005CFA054600F0D8F8D1D000F056FA401BE1
:100280006528F7D3B5E000F053FA207840076CD525
:10029000F069DFF8009440F08050F061F06900F000
:1002A000805000900098D9F8000040F48070C9F8A0
:1002B000000000F03AFA0546D9F80000C00514D451
:1002C00000F033FA401B6528F6D392E0016000F09D
:1002D0002CFA0546706AC0F340000028D5D000F023
:1002E00024FA401B6528F5D383E0306A00F086F8D5
:1002F000306200F01AFA0546306AC0F3400028B1B7
:1003000000F013FA401B4045F6D372E0E068012884
:1003100008D008B9306A09E00528306A06D140F0F3
:1003200004003062306A40F0010001E000F066F83D
:100330003062E06860B100F0F8F90546306AC0F359
:10034000400090B900F0F1F9401B4045F6D350E071
:1003500000F0EBF90546306AC0F3400028B100F028
:10036000E4F9401B4045F6D343E0E069002842D061
:10037000716801F00C0108293FF4F4AE02282CD179
:1003800000F043F805463068C0F3406028B100F043
:10039000CCF9401B6528F6D32BE0206AB0F5803FEE
:1003A00005D17068A16820F400300843706070685F
:1003B000216A20F474100843616A084370600120C8
:1003C00000F024F805463068C0F3406098B900F0AA
:1003D000ACF9401B6528F6D30BE000F016F8054693
:1003E0003068C0F3406030B100F09FF9401B6528D1
:1003F000F6D3032000E00020BDE8F283400840006F
:100400003062306A20F0040070470020386600F047
:100410008CB93068C0F34040704720F480303060C1
:10042000306820F4802070473068C0F34000002816
:1004300070472DE9F843DFF86052DFF84C6204465C
:100440002868894600F00700484541F289383BD2C8
:1004500000F091F874D100F0A9F873D56068012814
:1004600003D13168C1F3404104E00228316803D16F
:10047000C1F3406121B963E0C1F3400100295FD0BD
:1004800000F083F807466068012808D100F084F87E
:1004900058D000F04AF9C01B4045F7D34BE0022882
:1004A00008D100F07EF84DD000F03FF9C01B404568
:1004B000F7D340E0706810F00C0F43D000F035F92E
:1004C000C01B4045F6D336E000F070F835D56068C3
:1004D000012803D13168C1F3404104E002283168AA
:1004E00003D1C1F3406119B92AE0C1F3400139B326
:1004F00000F04BF807466068012808D100F04CF87E
:100500001BD000F012F9C01B4045F7D313E00228BE
:1005100008D100F046F810D000F007F9C01B4045A4
:10052000F7D308E0706810F00C0F06D000F0FDF86B
:10053000C01B4045F6D303201BE000F01CF801D09F
:10054000012016E02078400705D57068E16820F4A6
:10055000E060084370602078000706D57068216964
:1005600020F4605040EAC1007060002000F0C6F83E
:100570000020BDE8F2832868C00849EAC00028606E
:10058000286800F00700484570477168890840EA0C
:100590008100706000F0C9B8706800F00C00042899
:1005A0007047706800F00C000828704720788007BA
:1005B00005D57068A16820F0F000084370602078CD
:1005C000C0077047364901200860704700B585B004
:1005D00001A80FF2E401102200F0BAF80FF2E800CF
:1005E0000088ADF800002D48016801F00C02082ACF
:1005F00012D101AAC1F38343C9039A5C09D50068EB
:1006000000ABC0F340402749C05CB1FBF0F0504361
:1006100003E02548504300E0224805B000BD80B506
:10062000FFF7D4FF1D4B0FF2A4021B681F49C3F351
:1006300003139A5C20FA02F30B60086802BD80B5D0
:10064000FFF7EDFF00F00EF8C2F3022206E080B5DE
:10065000FFF7E5FF00F006F8C2F3C222125C21FAB0
:1006600002F002BD0D4A126801460FF260007047A9
:1006700010B50F4C2068000603D500F01BF8802051
:10068000A07010BD000000000010024000004242B7
:1006900080044242007000400020024004100240EA
:1006A0004C00424200127A0000093D000000002088
:1006B00008100240704700000203040506070809FD
:1006C0000A0B0C0D0E0F10100102000000000000BC
:1006D00001020304010203040607080980B51A4851
:1006E000016841F010010160032000F06AF8002069
:1006F00000F004F800F0CAF8002002BD10B504466E
:10070000FFF78DFF4FF47A71B0FBF1F000F08DF838
:10071000002221464FF0FF3000F060F8002010BDAD
:100720000A480168491C0160704708480068704722
:1007300011B581B0FFF7F9FF0446FFF7F6FF019905
:10074000001B8842F9D313BD00200240DC000020CA
:10075000103A07D330B4B1E83810103AA0E8381096
:10076000F9D230BC530724BFB1E80810A0E8081044
:1007700044BF51F8043B40F8043BD20724BF31F892
:10078000022B20F8022B44BF0B7803707047083A05
:1007900007D3B1E80810083A40F8043B40F804CB0E
:1007A000F7D25307E4E700000901002806D52E4AD6
:1007B00000F00F00801800F8041C70472B4A815489
:1007C00070472B490A684FF6FF031A4000F00700F4
:1007D00042EA0020274A10430860704770B5244B56
:1007E0001B68C3F302230124C3F10705052D2EBFA7
:1007F0000F2504FA05F56D1E1E1D072E34BF0023BC
:10080000DB1E2940994004FA03F3BDE870405B1EEB
:100810001A401143C8E7012100F01F029140164A17
:10082000FFE7400942F82010704710B5401EB0F1B4
:10083000807F01D3012010BD104C60600F214FF06C
:10084000FF30FFF7B1FF0020A060072020600020EC
:1008500010BD0A49042808680CBF40F0040020F0CD
:10086000040008607047000018ED00E000E400E0BC
:100870000CED00E00000FA0500E100E010E000E00F
:1008800080B500F001F801BD7047000080B56148F7
:10089000016841F001010160006800F00100009072
:1008A00000980320FFF78DFF002200214FF0FF305A
:1008B000FFF794FF5848016821F0E06141F0806142
:1008C000016001BD00685549884200D0704700B5FD
:1008D000504885B0016841F40071016001A90068C9
:1008E00000F40070009000983020019003200290E6
:1008F0004B4800F0A7F803200190029001A9494855
:1009000000F0A0F8002200211220FFF767FF12205C
:1009100039E081B000684449884209D14348016800
:1009200041F040010160006800F040000090009834
:1009300001B0704700683E49884200D0704700B55A
:1009400085B0C020019001A91220029003200490DC
:10095000344800F077F83748016841F4001101602D
:100960000022006800F400100090002100981F2071
:10097000FFF734FF1F20FFF74EFF00221146202013
:10098000FFF72CFF2020FFF746FF05B000BD7047A2
:1009900000682949884200D0704710B51D48274C8F
:1009A00086B0016841F48041016001A9006800F44B
:1009B0008040009000984FF4007001900220029057
:1009C00003200490204600F03DF84FF48060019031
:1009D00001A9002002900390204600F033F8002285
:1009E00000212520FFF7FAFE2520FFF714FF06B0AF
:1009F00010BD81B000681249884209D10D480168D4
:100A000041F400610160006800F40060009000980B
:100A100001B070471810024004000140002401405A
:100A200000100140000C0140003002401410024050
:100A3000005400401C1002400038014000080140F2
:100A4000002C00402DE9F8474FF0000E0022614BCA
:100A5000DFF88481DFF884914FF00F0A012707FA4D
:100A600002F60F683740B74240F0AA804C685CB38A
:100A7000012C1AD0022C1FD0032C31D0112C17D0EE
:100A8000122C1DD0564DAC421CBF564DAC421BD053
:100A9000554DAC421CBF554DAC4215D0544DAC42E7
:100AA0001CBF544DAC420FD01CE0D1F80CE019E053
:100AB000CC6804F1040E15E0CC6804F1080E11E0D6
:100AC000CC6804F10C0E0DE08C6814B94FF0040EE4
:100AD00008E0012C4FF0080E14BF4661066101E0EA
:100AE0004FF0000EFF2F02D88446940004E0A2F1DC
:100AF000080400F1040CA400DCF800500AFA04F623
:100B0000B5430EFA04F42C43CCF800404C68E400E2
:100B100056D5D9F8004044F00104C9F800404FEA26
:100B2000920CD9F8005005F001040094009C58F88C
:100B30002C5002F00304A4000AFA04F6B5432E4E2A
:100B4000B04208BF002618D02C4EB04208BF012684
:100B500013D02B4EB04208BF02260ED0294EB04211
:100B600008BF032609D0284EB04208BF042604D08F
:100B7000264EB0420CBF0526062606FA04F42C4386
:100B800048F82C40FE434C68E4031C684CBF3C43CF
:100B900034401C604C68A4035C684CBF3C43344048
:100BA0005C604C68E4029C684CBF3C4334409C60F1
:100BB0004C68A40247BFDC682743DF683740DF602A
:100BC000521C102AFFF44AAFBDE8F187C2685140B9
:100BD000C160704700040140080001401810024045
:100BE000000011100000121000002110000022105F
:100BF000000031100000321000080140000C0140DC
:100C0000001001400014014000180140001C014088
:100C100038B5050001D1012032BD05F134046078FA
:100C200018B920702846FFF785FE022060702868FA
:100C30000168490849000160FFF701FD2A68DFF8F3
:100C40009C10B0FBF1F151606B68DFF89420934287
:100C500006D34FF4967359434FF47A73B1FBF3F113
:100C60002B68491C19626968914208D24900B0FB9F
:100C7000F1F00105090D042913D2042011E0AA683E
:100C800032B901EB4101B0FBF1F040F4004005E066
:100C900019225143B0FBF1F040F44040010508BF78
:100CA00001202968C861E869296A08432968086041
:100CB0002869E9680843296888606869A969084360
:100CC0002968C8602868016841F0010101600020BE
:100CD000606001206070002032BD000040420F00C3
:100CE000A1860100016821F48061016070472068DD
:100CF000016821F400610160704738B501688A69B4
:100D0000D2075DD58A694B694C6852074A692DD56F
:100D100000F0B2F80FD563050DD562B900F0A0F868
:100D200000F058F9418D002904D10068416821F490
:100D30008061416031BD002AFCD0AA05FAD5428D00
:100D4000002A74D100F086F80A6842F400720A6042
:100D500090F83510322904D100F038F900F0FDF890
:100D600031BD00F033F900F0F4F831BD00F07EF849
:100D70001FD563051DD5E2B9428D042A65D2022A2A
:100D800018BF032A10D04A6822F4E0624A6000F0DB
:100D90002BF904D100F01AF900F0E0F831BD00F0B1
:100DA00015F900F0D7F831BD486820F4806048603C
:100DB00031BD002A4DD0A9054BD5BDE83240CFE06A
:100DC0004A694B684C698D695B0AAD08920703F06C
:100DD000010305F0010506D52BB14869009088692B
:100DE0000090009831BDE20611D583B100F032F8D1
:100DF0004A6900920A6842F001020A600092009972
:100E000000F0FFF800F0E2F800F0A6F831BD4B6901
:100E10004C684A69002D0DD000F02EF802D563050C
:100E200000D512B1AAB1AA0513D5428D8AB100F03E
:100E300017F80CE000F01AF802D5630500D512B1DE
:100E40003AB1AA0505D5428D1AB100F0C7F800F0F5
:100E5000C1F831BD4A6822F4E0624A600168704717
:100E6000426A531C436212780A61704792084D68C7
:100E70005B0602F00102704792084D681B0602F003
:100E80000102704710B5044600F05FF8C9050ED5A1
:100E9000D1050CD5A16B41F00101A163416921F499
:100EA000807141612068016841F40041016000F0F7
:100EB0004CF8890509D5D10507D5A16B41F0020190
:100EC000A163416921F40071416100F03EF84905D8
:100ED00022D5D10520D58169628D94F83530C907B6
:100EE00014D4002A08BF122B10D1416821F4E0610C
:100EF0004160206800F08BF82068FFF7F3FE0120C6
:100F000084F83500204600F026F805E0A16B41F09A
:100F10000401A16300F07BF800F017F8090509D57A
:100F2000D10507D5A16B41F00801A163416921F406
:100F300000614161A06B38B1012084F83500FFF7F2
:100F4000D6FE204600F00BF810BD206841694268CB
:100F500070477047704770477047704770477047D9
:100F600080B50168428D032A06D10A6822F48062A6
:100F70000A6000F024F81EE0428D022A19D10A68A6
:100F800042F400720A6001684A6822F440724A60C2
:100F900000F015F800F01EF800F026F804D100F07B
:100FA00015F8FFF7DBFF08E000F010F8FFF7D2FFBD
:100FB00003E000F013F800F00DF8002002BD416AD4
:100FC0004A1C4262026812690A707047012180F867
:100FD00035107047418D491E41857047426A531C48
:100FE0004362096911707047416A4A1C4262026893
:100FF00012690A70418D491E418590F835104229C9
:10100000704701680A6822F480620A60704741698B
:1010100021F4806141617047F8B50446002700253E
:10102000002C6FD004F12406706820B9B0603070D5
:101030002046FFF747FC204600F06AF97168C906B0
:101040005CD400285AD1716821F4885141F0020122
:101050007160E3696168E2681943A368B3F5807F52
:1010600014BF012B4FF480776369012B41EA4201E1
:101070000FD132B9A269521E520342F400621743E3
:1010800007E0726842F020027260B26842F001022A
:10109000B2602268536823F469433B43536022687B
:1010A000DFF8547293683B400B439360A268B2F53B
:1010B000807F02D12269521E15052268D36A23F46B
:1010C00070032B43D3622268DFF8303292681A40F3
:1010D0008A4208D10021B160716821F0020141F01B
:1010E00001017160F2BD706820F0020040F0100054
:1010F0007060B06840F00100B06003E0706840F0DC
:10110000100070600120F2BD10B5044620684168EF
:10111000890622D5016889071FD5A16AC90603D4AB
:10112000A16A41F40071A16200F05AF804BFE168BD
:1011300000290BD1416821F020014160A06A20F410
:101140008070A062A06AC00400F050F8204600F051
:1011500053F821686FF012000860206841680906A2
:101160002BD50168490728D5A16AC90603D4A16A0D
:1011700041F40051A162816801F4E041B1F5E04F12
:1011800008D04168490511D400F02AF804BFE1688D
:1011900000290BD1416821F080014160A06A20F450
:1011A0008050A062A06AC00500F020F8204600F040
:1011B000D1F821686FF00C0008602068416849068A
:1011C0000DD50068C0070AD5A06A40F48030A0623F
:1011D000204600F012F821686FF00100086010BD91
:1011E000816801F46021B1F5602F704703D4A06AD3
:1011F00040F00100A062704770477047F8B50A469A
:10120000002100F1240300911C78012C01D102205F
:10121000F2BD01241C701F26576814680568072F4B
:1012200008D27F1E07EB8707D5F834C000F05DF8C1
:101230006C6312E00D2F08D2FF1F07EB8707D5F86C
:1012400030C000F052F82C6307E00D3F07EB870732
:10125000D5F82CC000F049F8EC62072716689568AD
:1012600004680A2E08D30A3E06EB4606D4F80CC0E2
:1012700000F035F8E56006E006EB4606D4F810C04D
:1012800000F02DF825611468102C18BF112C22D104
:1012900000681C4CA04219D11B48046824021AD4CF
:1012A000046844F4000404601068102813D1144842
:1012B000164A0068B0FBF2F00A22504300900098F2
:1012C00000281CBF0098401EF8D104E0586840F088
:1012D000200058600121002018700846F2BDB74078
:1012E0002CEA0707B5403D437047BE402CEA06068E
:1012F000BC40344370470000FDF7E1FFFE0E1FFFC6
:1013000000000020002401400824014040420F005A
:1013100038B5044620688168C90719D5816849082D
:1013200049008160FFF701FA054620688068C00720
:101330000ED5FFF7FAF9401B0328F6D3A06A40F058
:101340001000A062E06A40F00100E062012032BDBE
:10135000002032BD7047000038B5050001D10120E2
:1013600032BD00F02EF818B920702846FFF710FBA8
:1013700000F011F800F007F821F02A01FFE74161C1
:1013800000F013F832BD2868016921F49041016131
:10139000286841697047022060702868C16821F49C
:1013A0000051C160284600F006B92868C16841F4C0
:1013B0000051C16000206060012060700020704713
:1013C000054605F138046078704710B5044682B0D0
:1013D00020680168C268C9070AD5D10508D5016827
:1013E0000091416800910099E16B41F00101E163D6
:1013F0000268416992070AD5CA0708D502680092B7
:1014000042680092009AE26B42F00402E2630268D2
:1014100052070AD5CA0708D50268009242680092AE
:10142000009AE26B42F00202E263026812070AD5F8
:10143000C90708D501680091416800910099E16BE6
:1014400041F00801E1630168C068890604D580069F
:1014500044BF204600F05FF820680168C2680906B2
:1014600026D5110624D594F83910122918BF32292F
:101470001ED1A168B1F5805F216A0BD10988C90529
:10148000C90D416020690028206A0CBF801C401CE7
:10149000206203E04A1C226209784160E08C401E11
:1014A000E08480B220B900F02EF841F04001C16024
:1014B00020680168C268490612D5510610D5C16876
:1014C00021F04001C16094F83900322808BF222081
:1014D00001D000F011F884F83900204600F009F836
:1014E000E06B28B1012084F83900204600F003F8B1
:1014F00013BD70477047704720684169490849002B
:101500004161012070472068C16821F08001C160FD
:101510002068C168704780B590F83910222918BF3B
:10152000322946D18168B1F5805F11D10269816AA3
:10153000002A0268526805D1D205D20D0A80816A5C
:10154000891C03E0D2B20A80816A491C81620FE0E3
:1015500001690029816A04D14A1C826202685268CA
:1015600005E04A1C82620268526802F07F020A703B
:10157000C18D491EC18589B2C9B90168CA6822F006
:101580002002CA6090F83910322908BF12210AD00F
:101590000168CA6822F48072CA6001684A69520808
:1015A00052004A61012180F83910FFF7A3FF0020A3
:1015B00002BD022002BD2DE9F041044664252068E9
:1015C0000169E26821F44051114301611926C168A3
:1015D000214A1140A26811432269114362691143F3
:1015E000C1604169A26921F44071114341611B4905
:1015F000884208D1FFF72BF88046FFF728F8074606
:10160000FFF725F807E0FFF71AF88046FFF717F80D
:101610000746FFF714F8704306FB07F361688A007A
:10162000B0FBF2F0B3FBF2F3B0FBF5F005FB1030CA
:10163000000106FB08F13230B1FBF2F1B0FBF5F02E
:10164000B1FBF5F100F00F0040EA0110216888605D
:10165000BDE8F08100000000F3E9FFFF0038014021
:101660003EB5FFF73BF800F06CF800F0A2F8764CBE
:101670007648E06304F1840500206064A06420657E
:101680004FF46020A065002020640120E06404F194
:101690003C00FFF7C1FC0920009000A90120019047
:1016A0000020029004F13C00FFF7A8FD6848E864C0
:1016B00004F1D00000F0EEF86648206066486060F3
:1016C0000020A060E0604FF4804020610020606155
:1016D000A061E06120622046FFF79AFA5F48E86364
:1016E0000020286440F6FF70686404F1C00000F038
:1016F000E0F85B48E0664FF49640206700206067A2
:10170000A067E0670C20C4F88000002028606860B3
:1017100004F16C00FFF720FE5248A8620020E86246
:1017200040202863686304F1AC0000F0ECF84FF44B
:1017300000514D48FFF74AFA4FF47A70FEF7F8FF70
:10174000F5E700B593B0092008904FF400310A91F5
:101750004FF480300990012110900E914FF4E01069
:10176000022111900F9108A8FEF7E2FC01200390DE
:10177000012102200490002005900690079003A804
:10178000FEF757FE022000904FF48040029000A820
:1017900000F0DAF8FEF716FFFEF741FF4FF47A711A
:1017A000B0FBF1F0FFF741F80420FFF752F813B057
:1017B00000BD10B52D482C4C86B0016841F01001D9
:1017C0000160016801F0100100910099016841F089
:1017D00020010160016801F0200100910099016879
:1017E00041F004010160016801F0040100910099D9
:1017F000016841F00801016001A9006800F00800DB
:10180000009000984FF40050019000F03CF80F2039
:1018100000F032F82046FFF715F9FF20019000F0A4
:101820002DF801A9124C2046FFF70CF9042000F016
:1018300023F81048FFF706F94FF40060019001A962
:1018400000F021F806B010BD040000200024014083
:101850000030024000540040A086010000300040EB
:1018600000380140002C00400010014018100240D8
:1018700000080140000C0140019001A901200290E4
:10188000032004907047012002900220049020461B
:10189000FFF7D8B810B5040001D1012010BD607960
:1018A00018B920712046FFF734F80120607100203C
:1018B00010BD10B5040006D02068C168C90704D562
:1018C000C068800701D5012010BD607B18B9207366
:1018D0002046FFF75CF80220607345F255502168FE
:1018E0000860206841686268C90842EAC101416035
:1018F00020688168A268090B42EA013181600120F9
:101900006073002010BD10B5040001D1012010BD8E
:10191000607C18B920742046FFF76BF802206074D1
:1019200020684168A2686368490A1A4342EA412173
:10193000416020680168E268C90942EAC11101609A
:1019400001206074002010BDF8B50446284D2078B1
:10195000C00742D5A869274E40F08050A861A86909
:1019600000F0805000900098306840F48070306043
:10197000FEF7DBFE07463068C00505D4FEF7D5FE4E
:10198000C01B6528F7D320E0E869616800F4407067
:1019900001F44071884220D01749E86901220A60A9
:1019A00020F4407000220A60E86180070FD5FEF73E
:1019B000BCFE0746E869C0F3400040B9FEF7B5FE3B
:1019C000C01B41F289318842F4D30320F2BDE8699B
:1019D000616820F440700843E8612078800705D5ED
:1019E0002868A16820F44040084328600020F2BD28
:1019F0000410024000700040400442420E480F4A6A
:101A0000016841F0010101604168114041600C4AE8
:101A1000016811400160016821F480210160416882
:101A200021F4FE0141604FF41F0181604FF000601E
:101A30000449086070470000001002400000FFF8F1
:101A4000FFFFF6FE08ED00E019E050F8041BCB079D
:101A500044BFA9F101035918121F0023042A41F8B9
:101A6000043BF9D25FEA827C0B4604D54FF0000CB0
:101A7000A1F800C09B1CD10744BF0021197050F889
:101A8000042B002AE1D17047FEF7F2BD80B5FEF7C6
:101A900047FEBDE80140FEF7F3BE0648FFF734BB42
:101AA0000548FFF72AB90448FFF7ECB90348FFF7E8
:101AB0008CBC0000400000200400002070000020CA
:101AC00010B450F8041B79B102684368121808304A
:101AD000DC0744BFA9F10104E31852F8044B43F8B2
:101AE000044B091FF9D1ECE710BC704710B507494A
:101AF00079441831064C7C44163404E00A68081D09
:101B0000511888470146A142F8D110BD08000000D5
:101B10002800000035FFFFFFDC000000040000206B
:101B2000000000009DFFFFFF040000002C010000EA
:101B3000000000200000000000F00BF8002801D099
:101B4000FFF7D4FF0020C046C046FFF789FD00F034
:101B500002F80120704700F001B80000074638463F
:101B600000F002F8FBE7000080B5C046C046024A1C
:101B700011001820ABBEFBE7260002000148804799
:101B800001480047FD1900088D1B0008C046C046EB
:101B9000C046C046FFF7D0FFFFF7FEBFFFF7FEBF0E
:101BA000FFF7FEBFFFF7FEBFFFF7FEBFFFF7FEBF69
:101BB000FFF7FEBFFFF7FEBFFFF7FEBFFFF7FEBF59
:101BC000FFF7FEBFFFF7FEBFFFF7FEBFFFF7FEBF49
:101BD000FFF7FEBFFFF7FEBFFFF7FEBFFFF7FEBF39
:101BE000FFF7FEBFFFF7FEBFFFF7FEBFFFF7FEBF29
:101BF000FFF7FEBFFFF7FEBFFFF7FEBFFFF7FEBF19
:101C0000FFF7FEBFFFF7FEBFFFF7FEBFFFF7FEBF08
:101C1000FFF7FEBFFFF7FEBFFFF7FEBFFFF7FEBFF8
:101C2000FFF7FEBFFFF7FEBFFFF7FEBFFFF7FEBFE8
:101C3000FFF7FEBFFFF7FEBFFFF7FEBFFFF7FEBFD8
:101C4000FFF7FEBFFFF7FEBFFFF7FEBFFFF7FEBFC8
:0C1C5000FFF7FEBFFFF7FEBF00A24A0432
:0400000508001B8D47
:00000001FF
